:100000000C946F000C9497000C9497000C9497003C
:100010000C9497000C9497000C9497000C94970004
:100020000C9497000C9497000C9497000C949700F4
:100030000C9497000C9497000C9497000C949700E4
:100040000C94A6060C9497000C9474060C944E061F
:100050000C9497000C9497000C9497000C949700C4
:100060000C94F0060C949700084AD73B3BCE016EE7
:1000700084BCBFFDC12F3D6C74319ABD56833DDAFF
:100080003D00C77F11BED9E4BB4C3E916BAAAABE0E
:10009000000000803F0000000000250028002B0029
:1000A000040404040404040402020202020203031E
:1000B0000303030301020408102040800102040826
:1000C00010200102040810200000000800020100B6
:1000D0000003040700000000000000000F081124C6
:1000E0001FBECFEFD8E0DEBFCDBF11E0A0E0B1E092
:1000F000ECEEF1E202C005900D92A437B107D9F7FA
:1001000023E0A4E7B1E001C01D92AA32B207E1F7F3
:1001100010E0CFE6D0E004C02197FE010E94EE106F
:10012000CE36D107C9F70E9448080C94F4100C94FD
:1001300000009091800280917F022FEF3FEF98178F
:1001400048F4E92FF0E0E15AFD4F208130E09F5F55
:1001500090938002C90108959091800280917F025E
:100160002FEF3FEF981748F4E92FF0E0E15AFD4FE9
:10017000208130E09F5F90938002C9010895089527
:100180000895AF92BF92CF92DF92EF92FF920F93BA
:100190001F93CF93DF936C017B018B01040F151F1D
:1001A000EB015E01AE18BF08C017D10759F0699185
:1001B000D601ED91FC910190F081E02DC6010995E9
:1001C000892B79F7C501DF91CF911F910F91FF9096
:1001D000EF90DF90CF90BF90AF900895FC01538DCA
:1001E000448D252F30E0842F90E0821B930B541711
:1001F00010F0CF96089501970895FC01918D828D9E
:10020000981761F0A28DAE0FBF2FB11D5D968C9136
:10021000928D9F5F9F73928F90E008958FEF9FEF75
:100220000895FC01918D828D981731F0828DE80F31
:10023000F11D858D90E008958FEF9FEF0895FC01EB
:10024000918D228D892F90E0805C9F4F821B9109B8
:100250008F739927089581E892E00E941F0121E0A1
:10026000892B09F420E0822F089580E090E0892B0B
:1002700029F00E942B0181110C9400000895FC01CB
:10028000A48DA80FB92FB11DA35ABF4F2C91848DF7
:1002900090E001968F739927848FA689B7892C9354
:1002A000A089B1898C91837080648C93938D848DA7
:1002B000981306C00288F389E02D80818F7D8083AA
:1002C0000895EF92FF920F931F93CF93DF93EC016A
:1002D00081E0888F9B8D8C8D98131AC0E889F989ED
:1002E000808185FF15C09FB7F894EE89FF896083F0
:1002F000E889F98980818370806480839FBF81E071
:1003000090E0DF91CF911F910F91FF90EF900895B2
:10031000F62E0B8D10E00F5F1F4F0F731127E02E8D
:100320008C8D8E110CC00FB607FCFACFE889F989C5
:10033000808185FFF5CFCE010E943F01F1CFEB8D8B
:10034000EC0FFD2FF11DE35AFF4FF0829FB7F89499
:100350000B8FEA89FB8980818062CFCFCF93DF93B7
:10036000EC01888D8823B9F0AA89BB89E889F989CD
:100370008C9185FD03C0808186FD0DC00FB607FC02
:10038000F7CF8C9185FFF2CF808185FFEDCFCE0135
:100390000E943F01E9CFDF91CF91089590E0FC01E9
:1003A000E853FF4F2491FC01EC54FF4F3491FC01C2
:1003B000E056FF4FE491EE23C9F0222339F02330B9
:1003C00001F1A8F4213019F1223029F1F0E0EE0F0B
:1003D000FF1FEA56FF4FA591B4918FB7F894EC91A7
:1003E000611126C030953E233C938FBF089527307E
:1003F000A9F02830C9F0243049F7809180008F7D22
:1004000003C0809180008F7780938000DFCF84B518
:100410008F7784BDDBCF84B58F7DFBCF8091B0001B
:100420008F778093B000D2CF8091B0008F7DF9CFCD
:100430003E2BDACF3FB7F8948091B9019091BA0181
:10044000A091BB01B091BC0126B5A89B05C02F3F70
:1004500019F00196A11DB11D3FBFBA2FA92F982FEA
:100460008827BC01CD01620F711D811D911D42E0E5
:10047000660F771F881F991F4A95D1F7089520911D
:100480009501260F3327331F21323105ECF42091DB
:100490003502FC0190E080E0243069F082E00895AC
:1004A000A09195012191AC014B585E4FA40FB52F3F
:1004B000B11D2C930196861798F380919501680FD2
:1004C0006093950180E0089581E0089510923502CF
:1004D00081E08093340210920F0261E082E10E9479
:1004E000CE0161E083E10E94CE01E9EBF0E0808182
:1004F0008E7F808380818D7F808388E48093B800A5
:1005000085E48093BC000895CF93DF9391E09093AE
:1005100074018823B9F0C091B800D091BA008091DD
:10052000BC008A7B8093BC0060E082E10E94CE0127
:1005300060E083E10E94CE010E946602D093BA007F
:10054000C093B800DF91CF9108958F929F92AF92A0
:10055000BF92CF92DF92EF92FF920F931F93CF93B0
:10056000DF93D0915E02D13208F0D7C0182FC0912E
:100570005D020E941A026B017C018091350281119B
:100580006BC082E080933502109334028FEF80932A
:10059000330210923202D0933102ADE3B2E0E1E1D6
:1005A000F2E080E0D81391C0109210028091100206
:1005B000CC0FC82BC093100280910F02813009F03C
:1005C00088C010920F020E941A026B017C01809178
:1005D00010028093BB008091370290913802A09165
:1005E0003902B0913A02892B8A2B8B2BA1F00E9401
:1005F0001A0200913702109138022091390230918D
:100600003A026C197D098E099F09061717072807FA
:10061000390708F442C08091BC0083FDD8CF85EC37
:100620008093BC000E941A026B017C01809135020C
:10063000823009F450C0809133028F3F09F46FC0BB
:1006400080913302803209F46CC080913302803390
:1006500009F469C084E026C0809137029091380285
:10066000A0913902B0913A02892B8A2B8B2B09F485
:1006700084CF0E941A028090370290903802A09096
:100680003902B0903A026C197D098E099F098616CD
:100690009706A806B90608F070CF809136020E942E
:1006A000840285E010923C0210925E0210923B029E
:1006B000DF91CF911F910F91FF90EF90DF90CF903E
:1006C000BF90AF909F908F9008959D9191938F5F71
:1006D00069CF85EEA5CF8091370290913802A09125
:1006E0003902B0913A02892B8A2B8B2B09F49ECFC9
:1006F0000E941A02009137021091380220913902AB
:1007000030913A026C197D098E099F090617170767
:100710002807390708F08ACFC0CF81E0C3CF80E037
:10072000C1CF82E0BFCF83E0BDCF0895E0918002CA
:1007300080917F02E81730F4F0E0E15AFD4F8081AC
:1007400090E008958FEF9FEF089580917F02909140
:100750008002891B990B0895CF92DF92EF92FF924E
:100760000F931F93CF93DF937C01CB018A012091DC
:100770003B02222389F0EB016B01C40ED51ECC1580
:10078000DD0569F06991D701ED91FC910190F0814F
:10079000E02DC7010995F3CF642F0E943F02C801E5
:1007A000DF91CF911F910F91FF90EF90DF90CF904D
:1007B0000895CF93DF931F92CDB7DEB76983209161
:1007C0003B022223F9F020915E02203258F021E012
:1007D00030E0FC013383228390E080E00F90DF91D2
:1007E000CF91089580913C02E82FF0E0E35CFD4F4B
:1007F000998190838F5F80933C0280935E0281E0B9
:1008000090E0ECCF61E0CE0101960E943F02F7CF6D
:10081000682F8EE193E00C94D90390E080E0089576
:10082000FC0101900020E9F73197AF01481B590BFB
:10083000BC0181E892E00C94C1008F929F92AF922C
:10084000BF920F931F93CF93DF93CDB7DEB7A197DE
:100850000FB6F894DEBF0FBECDBF19A2423008F428
:100860004AE08E010F5D1F4F842E912CB12CA12CDC
:10087000A50194010E94CC10E62FB901CA01EA300B
:10088000F4F4E05DD801EE938D01232B242B252B6E
:1008900079F790E080E0109719F0CD010E941004E4
:1008A000A1960FB6F894DEBF0FBECDBFDF91CF91FA
:1008B0001F910F91BF90AF909F908F900895E95C2A
:1008C000E1CF4F925F926F927F928F929F92AF9201
:1008D000BF92CF92DF92EF92FF920F931F93CF932D
:1008E0006B017C01742EAC019B010E94B210882325
:1008F00099F084E291E0CF911F910F91FF90EF90DA
:10090000DF90CF90BF90AF909F908F907F906F902F
:100910005F904F900C94100446015701E894B7F88B
:100920002FEF3FEF4FE75FE7C501B4010E94B21020
:1009300081110DC02FEF3FEF4FE75FE7C501B40115
:100940000E946F0E18161CF488E291E0D4CF2FEFAE
:100950003FEF4FE75FE4C701B6010E94EE0F1816A4
:100960001CF48CE291E0C7CF2FEF3FEF4FE75FEC35
:10097000C701B6010E946F0E87FDF3CF20E030E083
:10098000A901C701B6010E946F0E10E000E087FFC9
:100990000AC06DE281E892E00E9461018C01F7FAE1
:1009A000F094F7F8F094C0E060E070E080E09FE33E
:1009B0007C1641F020E030E040E251E40E94740EE9
:1009C000CF5FF6CFA70196010E94D40D2B013C0109
:1009D0000E94E60E4B015C014AE00E941D047C016E
:1009E000E00EF11ECC23C1F1C501B4010E94150F28
:1009F0009B01AC01C301B2010E94D30D4B015C010C
:100A00006EE281E892E00E946101E80EF91EC15099
:100A100018F120E030E040E251E4C501B4010E9449
:100A2000FB0F2B013C010E94E60E4B01B12CA12CC7
:100A30004AE0C501B4010E941D04E80EF91EC5017B
:100A4000B4010E94150F9B01AC01C301B2010E94C9
:100A5000D30D4B015C01DBCFC701CF911F910F91EB
:100A6000FF90EF90DF90CF90BF90AF909F908F90CE
:100A70007F906F905F904F900895CF93DF9342E007
:100A80000E946104EC0180E391E00E9410048C0F4D
:100A90009D1FDF91CF910895CF92DF92EF92FF9249
:100AA0000F931F930E941A026B017C018091350203
:100AB000811165C081E080933502809334029FEFFD
:100AC000909333021092320295E09093310280931A
:100AD000100280911002806D8093100280910F02AD
:100AE000813009F07DC010920F020E941A026B0142
:100AF0007C01809110028093BB008091370290911D
:100B00003802A0913902B0913A02892B8A2B8B2BA3
:100B1000A1F00E941A020091370210913802209130
:100B2000390230913A026C197D098E099F09061726
:100B300017072807390708F443C08091BC0083FDDC
:100B4000D8CF85EC8093BC000E941A026B017C0117
:100B500080913502813009F445C08091320286309F
:100B600008F062C080913202A1E1B2E0EFE5F2E06C
:100B700090E0981751F12D9121939F5FFACF8091CA
:100B8000370290913802A0913902B0913A02892B34
:100B90008A2B8B2B09F48ACF0E941A02009137020C
:100BA000109138022091390230913A026C197D0976
:100BB0008E099F09061717072807390708F076CF0F
:100BC000809136020E94840280E01092800280931D
:100BD0007F021F910F91FF90EF90DF90CF900895CB
:100BE00085EEB0CF8091370290913802A091390202
:100BF000B0913A02892B8A2B8B2B09F4A9CF0E9442
:100C00001A02009137021091380220913902309176
:100C10003A026C197D098E099F09061717072807E4
:100C2000390708F095CFCCCF86E09ECF85ED809335
:100C3000BC008091370290913802A0913902B091A6
:100C40003A020796A11DB11D23E0B695A795979589
:100C500087952A95D1F72091BC0024FD03C01092FE
:100C6000350208954091370250913802609139025F
:100C700070913A02452B462B472B69F30097A1054B
:100C8000B10541F025E32A95F1F700000197A1098C
:100C9000B109E1CF809136020C9484021F920F9229
:100CA0000FB60F9211242F933F934F935F936F933F
:100CB0007F938F939F93AF93BF93EF93FF9381E8BD
:100CC00092E00E943F01FF91EF91BF91AF919F9100
:100CD0008F917F916F915F914F913F912F910F90E5
:100CE0000FBE0F901F9018951F920F920FB60F9284
:100CF00011242F938F939F93EF93FF93E091910291
:100D0000F09192028081E0919702F091980282FD29
:100D10001BC0908180919A028F5F8F7320919B02FC
:100D2000821741F0E0919A02F0E0EF57FD4F958F66
:100D300080939A02FF91EF919F918F912F910F9045
:100D40000FBE0F901F9018958081F4CF1F920F92C5
:100D50000FB60F9211242F933F938F939F93AF93CE
:100D6000BF938091D7019091D801A091D901B09102
:100D7000DA013091B80123E0230F2D3758F50196A1
:100D8000A11DB11D2093B8018093D7019093D80184
:100D9000A093D901B093DA018091B9019091BA0181
:100DA000A091BB01B091BC010196A11DB11D809322
:100DB000B9019093BA01A093BB01B093BC01BF915C
:100DC000AF919F918F913F912F910F900FBE0F90F8
:100DD0001F90189526E8230F0296A11DB11DD2CFB2
:100DE0001F920F920FB60F9211242F933F934F93A0
:100DF0005F936F937F938F939F93AF93BF93EF9383
:100E0000FF938091B900887F803609F44AC0F0F5DD
:100E1000883209F4A7C018F5803109F49BC0B8F4F2
:100E2000882309F4F9C0883009F494C0FF91EF9148
:100E3000BF91AF919F918F917F916F915F914F91F2
:100E40003F912F910F900FBE0F901F9018958831F2
:100E500009F488C0803251F78093330214C0803483
:100E600009F49DC040F48033B9F38833F9F68093D8
:100E7000330285ECB0C0803509F485C0883509F4AB
:100E800096C0883499F60E941606D0CF883909F4A6
:100E90008CC038F5883729F050F4883611F0803747
:100EA00029F683E0809335021092B70157C0883845
:100EB00009F47BC0803919F0803809F0B7CF8091F0
:100EC000B701803208F071C0E091B70181E08E0F68
:100ED0008093B7018091BB00F0E0E956FE4F80831C
:100EE0003DC0803B39F0E0F4803A09F479C0883A9B
:100EF00009F09CCF84E08093350210929601109205
:100F00009501E091BF01F091C00109958091950193
:100F100081110FC081E0809395011092750109C085
:100F2000803C09F4A6CF883C09F4A3CF883B09F0A4
:100F30007DCFE091960181E08E0F80939601F0E0E5
:100F4000EB58FE4F80818093BB0090919601809179
:100F5000950129C0809110028093BB0085EC80939D
:100F6000BC0064CF9091320280913102981758F5FD
:100F7000E091320281E08E0F80933202F0E0EF5E6A
:100F8000FD4F8081E9CFE091320281E08E0F8093A6
:100F900032028091BB00F0E0EF5EFD4F80839091C4
:100FA0003202809131029817C8F285E8D8CFE091DB
:100FB000320281E08E0F809332028091BB00F0E01C
:100FC000EF5EFD4F80838091340281115CCF81E020
:100FD00080930F0284EA8093BC001092350226CFE2
:100FE00085EC8093BC00109235028091B70180326D
:100FF00030F4E091B701F0E0E956FE4F10826091C5
:10100000B70170E0E091BD01F091BE0187E991E088
:1010100009951092B7010ACF1092330234CFE1E85C
:10102000F2E01382128288EE93E0A0E0B0E08483C5
:101030009583A683B78324E031E03183208325ECB8
:1010400030E03587248724EC30E03787268720EC92
:1010500030E0318B208B21EC30E0338B228B22EC83
:1010600030E0358B248B26EC30E0378B268B118ECD
:10107000128E138E148EEEE1F3E0138212828483BB
:101080009583A683B78386E191E091838083089559
:10109000CF93DF93CDB7DEB7A0970FB6F894DEBF3E
:1010A0000FBECDBF789484B5826084BD84B5816065
:1010B00084BD85B5826085BD85B5816085BD809123
:1010C0006E00816080936E0010928100809181009B
:1010D0008260809381008091810081608093810093
:1010E000809180008160809380008091B100846055
:1010F0008093B1008091B00081608093B0008091B6
:101100007A00846080937A0080917A008260809374
:101110007A0080917A00816080937A0080917A00D1
:10112000806880937A001092C100E0919102F09162
:10113000920282E08083E0918D02F0918E02108213
:10114000E0918F02F091900287E6808310929902DD
:10115000E0919502F091960286E08083E0919302FF
:10116000F0919402808180618083E0919302F091FC
:101170009402808188608083E0919302F0919402D0
:10118000808180688083E0919302F0919402808155
:101190008F7D80831092800210927F0210923C0219
:1011A00010925E020E9466028FEB90E09093C00165
:1011B0008093BF0180EC90E09093BE018093BD01CD
:1011C00081E080933B0288E680935D028BE690E0AD
:1011D0000E94080490E080E00E94080481E00E94E0
:1011E000A5022090D5013090D6018091D101909137
:1011F000D201A091D301B091D40189839A83AB83AA
:10120000BC838091CD019091CE01A091CF01B0918E
:10121000D0018D839E83AF83B88798EC2916310463
:101220000CF0D7C0A1E0A0933B02B8E6B0935D02FA
:1012300010923C0210925E028BE390E00E94080440
:1012400080E00E94A5020E944C050E94AC00182F6D
:101250000E94AC001A87198669857A85682B792BDC
:10126000072E000C880B990B0E94170F20E030E02E
:1012700040E858E30E94FB0F6B017C01C0920B0217
:10128000D0920C02E0920D02F0920E020E94AC008D
:10129000182F0E94AC001C871B866B857C85682BF1
:1012A000792B072E000C880B990B0E94170F20E05A
:1012B00030E040E858E30E94FB0F4B015C01809254
:1012C000070290920802A0920902B0920A020E94BC
:1012D000AC00182F0E94AC001E871D862D853E8510
:1012E000822B932BBC01990F880B990B0E94170F2F
:1012F00020E030E040E858E30E94FB0F9B01AC0186
:101300000E94FB0F2B013C01A7019601C701B6010A
:101310000E94FB0FA30192010E94D40D0E946E1047
:101320009B01AC01C501B4010E94740E0E94400EE5
:1013300020E030E044E353E40E94FB0F2BED3FE05C
:1013400049E450E40E94740E29813A814B815C810A
:101350000E94D40D6093D1017093D2018093D30188
:101360009093D401A5019401C501B4010E94FB0F23
:10137000A30192010E94D40D0E946E109B01AC014A
:10138000C701B60190580E94740E0E94400E20E0E2
:1013900030E044E353E40E94FB0F2BED3FE049E4CF
:1013A00050E40E94740E2D813E814F8158850E9429
:1013B000D40D6093CD017093CE018093CF019093B3
:1013C000D0013FEF231A330A3092D6012092D50183
:1013D00008CF20E030E048E453E469817A818B81D2
:1013E0009C810E94740E6093D1017093D20180930E
:1013F000D3019093D40120E030E048E453E46D81C0
:101400007E818F8198850E94740E6093CD017093C8
:10141000CE018093CF019093D0011092D60110920B
:10142000D50101E02090D5013090D601C090C901CE
:10143000D090CA01E090CB01F090CC018091C50121
:101440009091C601A091C701B091C8018D839E8380
:10145000AF83B8878091C1019091C201A091C3016F
:10146000B091C40189839A83AB83BC8398EC29161D
:1014700031040CF0A4C000933B02A8E6A0935D02E7
:1014800010923C0210925E0283E490E00E940804F5
:1014900080E00E94A5020E944C050E94AC00898752
:1014A0000E94AC00B985B88B1F866F857889682B40
:1014B000792B072E000C880B990B0E94170F2B011C
:1014C0003C014092EF015092F0016092F101709264
:1014D000F2010E94AC0089870E94AC0029852A8B0A
:1014E000198AA989BA898A2B9B2BBC01990F880B71
:1014F000990B0E94170F4B015C018092EB019092B7
:10150000EC01A092ED01B092EE010E94AC00182F08
:101510000E94AC009A87898720E030E043E053E4E2
:10152000C301B2010E94740EA70196010E94D40D5E
:101530006093C9017093CA018093CB019093CC0151
:1015400020E030E043E053E4C501B4010E94740E92
:101550002D813E814F8158850E94D40D6093C50135
:101560007093C6018093C7019093C8011C8B1B8A9E
:101570006B897C8929853A85622B732B072E000C99
:10158000880B990B0E94170F20E030E043E053E4F2
:101590000E94740E29813A814B815C810E94D40D96
:1015A0006093C1017093C2018093C3019093C40101
:1015B000C10101969093D6018093D50133CF20E0ED
:1015C00030E048E453E4C701B6010E94740E609312
:1015D000C9017093CA018093CB019093CC0120E0A4
:1015E00030E048E453E46D817E818F8198850E94CC
:1015F000740E6093C5017093C6018093C7019093E8
:10160000C80120E030E048E453E469817A818B81AD
:101610009C810E94740E6093C1017093C2018093FB
:10162000C3019093C40183E391E00E941004609190
:10163000D1017091D2018091D3019091D4010E9487
:101640003D058FE391E00E9410046091CD017091FF
:10165000CE018091CF019091D0010E943D058BE495
:1016600091E00E9410046091C9017091CA018091BB
:10167000CB019091CC010E943D0588E591E00E944C
:1016800010046091C5017091C6018091C7019091CD
:10169000C8010E943D0585E691E00E94100460911A
:1016A000C1017091C2018091C3019091C4010E9457
:1016B0003D050E941A024B015C0194E1C92ED12C18
:1016C000E12CF12C0E941A02681979098A099B09F8
:1016D000683E734081059105A8F331E0C31AD10833
:1016E000E108F10888EE880E83E0981EA11CB11C69
:1016F000C114D104E104F10429F788E6682EB1E0B1
:10170000B0933B0260925D0210923C0210925E0226
:101710008BE390E00E94080480E00E94A5020E94F2
:101720004C050E94AC0089830E94AC0029812E8B5D
:101730001D8AAD89BE898A2B9B2BBC01990F880B12
:10174000990B0E94170F20E030E040E858E30E9418
:10175000FB0F6B017C01C0920B02D0920C02E09255
:101760000D02F0920E020E94AC0089830E94AC0030
:10177000B981B88F1F8A6F89788D682B792B072ED6
:10178000000C880B990B0E94170F20E030E040E816
:1017900058E30E94FB0F4B015C018092070290927C
:1017A0000802A0920902B0920A020E94AC0089834A
:1017B0000E94AC0029812A8F198E698D7A8D682B41
:1017C000792B072E000C880B990B0E94170F20E035
:1017D00030E040E858E30E94FB0F9B01AC010E94FF
:1017E000FB0F1B012C01A7019601C701B6010E9446
:1017F000FB0FA20191010E94D40D0E946E109B016B
:10180000AC01C501B4010E94740E0E94400E20E09C
:1018100030E044E353E40E94FB0F2BED3FE049E44A
:1018200050E40E94740E21EE3AE744E15FE30E9427
:10183000D30D60930302709304028093050290938A
:101840000602A5019401C501B4010E94FB0FA2018B
:1018500091010E94D40D0E946E109B01AC01C70142
:10186000B60190580E94740E0E94400E20E030E0B5
:1018700044E353E40E94FB0F2BED3FE049E450E4C6
:101880000E94740E21E73DE34AEC5FE30E94D40D11
:101890006093FF0170930002809301029093020213
:1018A0008091FB019091FC01A091FD01B091FE019E
:1018B0008093F7019093F801A093F901B093FA0196
:1018C0002FB7F8946091D7017091D8018091D90118
:1018D0009091DA012FBF0E94150F6093FB01709366
:1018E000FC018093FD019093FE012091F70130915E
:1018F000F8014091F9015091FA010E94D30D20E0C6
:1019000030E04AE754E40E94740E4B015C0180927F
:10191000F3019092F401A092F501B092F60131E04A
:1019200030933B0260925D0210923C0210925E0284
:1019300083E490E00E94080480E00E94A5020E94D7
:101940004C050E94AC00D82E0E94AC007C010E9485
:10195000AC00582E0E94AC008C010E94AC00782E86
:101960000E94AC009A838983DC8E1B8E6B8D7C8DEC
:101970006E297F29072E000C880B990B0E94170FE8
:1019800020E030E043E053E40E94740E29E23CE59D
:101990004FE05FE30E94D40D6B017C01C092EF0128
:1019A000D092F001E092F101F092F2015E8E1D8E74
:1019B0006D8D7E8D602B712B072E000C880B990B83
:1019C0000E94170F20E030E043E053E40E94740EC1
:1019D00020E030E040E050E40E94D30D1B012C01D8
:1019E0002092EB013092EC014092ED015092EE0119
:1019F000A7019601C501B4010E94FB0F2091E701E8
:101A00003091E8014091E9015091EA010E94D40D22
:101A10006B017C01C092E701D092E801E092E901FC
:101A2000F092EA01A2019101C501B4010E94FB0FED
:101A30002091E3013091E4014091E5015091E601EC
:101A40000E94D40D1B012C012092E3013092E4018D
:101A50004092E5015092E60178A21F8E6F8D78A129
:101A600089819A81682B792B072E000C880B990BA2
:101A70000E94170F20E030E043E053E40E94740E10
:101A800021E73DE34AE45FE30E94D40DA501940100
:101A90000E94FB0F9B01AC016091DF017091E0019E
:101AA0008091E1019091E2010E94D40D6093DF01E9
:101AB0007093E0018093E1019093E2012AE037ED19
:101AC00043E25DE36091030270910402809105029C
:101AD000909106020E94FB0F4B015C012FE832EC53
:101AE00045E75FE3C701B6010E94FB0F9B01AC0114
:101AF000C501B4010E94D40D6B017C012AE037EDD1
:101B000043E25DE36091FF01709100028091010268
:101B1000909102020E94FB0F4B015C012FE832EC16
:101B200045E75FE3C201B1010E94FB0F9B01AC01DD
:101B3000C501B4010E94D40D6093DB017093DC01F8
:101B40008093DD019093DE0142E0C701B6010E945F
:101B5000610482E791E00E9410046091DB017091C2
:101B6000DC018091DD019091DE0142E00E94610480
:101B700082E791E00E9410046091DF017091E00122
:101B80008091E1019091E2010E943D05A0E0B0E06A
:101B9000AB2B09F4B4CD0E942B01882309F4AFCDFF
:101BA0000E940000ACCD5058BB27AA270E94EB0D25
:101BB0000C94B40F0E94A60F38F00E94AD0F20F0D5
:101BC00039F49F3F19F426F40C947C0F0EF4E09541
:101BD000E7FB0C94760FE92F0E94C50F58F3BA1754
:101BE000620773078407950720F079F4A6F50C9433
:101BF000E70F0EF4E0950B2EBA2FA02D0B01B901C3
:101C000090010C01CA01A0011124FF27591B99F072
:101C1000593F50F4503E68F11A16F040A22F232F7E
:101C2000342F4427585FF3CF469537952795A795CE
:101C3000F0405395C9F77EF41F16BA0B620B730B75
:101C4000840BBAF09150A1F0FF0FBB1F661F771FE6
:101C5000881FC2F70EC0BA0F621F731F841F48F49B
:101C6000879577956795B795F7959E3F08F0B0CF24
:101C70009395880F08F09927EE0F9795879508950B
:101C8000DF93DD27B92FBF7740E85FE3161617060D
:101C900048075B0718F4D92F0E94F30F9F938F9387
:101CA0007F936F930E94AE10E8E6F0E00E947F0FF2
:101CB0000E94B40F2F913F914F915F910E940E109F
:101CC000DD2351F09058A2EA2AED3FE049EC5FE3B2
:101CD000D0785D270E94EB0DDF910C94B40F0E9429
:101CE000520F08F481E008950E94880E0C94B40FFE
:101CF0000E94AD0F58F00E94A60F40F029F45F3FFC
:101D000029F00C94760F51110C94E80F0C947C0F71
:101D10000E94C50F68F39923B1F3552391F3951BE6
:101D2000550BBB27AA2762177307840738F09F5FFC
:101D30005F4F220F331F441FAA1FA9F335D00E2E69
:101D40003AF0E0E832D091505040E695001CCAF7D6
:101D50002BD0FE2F29D0660F771F881FBB1F261799
:101D600037074807AB07B0E809F0BB0B802DBF0170
:101D7000FF2793585F4F3AF09E3F510578F00C943F
:101D8000760F0C94E80F5F3FE4F3983ED4F386950A
:101D900077956795B795F7959F5FC9F7880F911D60
:101DA0009695879597F90895E1E0660F771F881F4C
:101DB000BB1F621773078407BA0720F0621B730BFF
:101DC000840BBA0BEE1F88F7E09508950E94CD0FA3
:101DD00088F09F5798F0B92F9927B751B0F0E1F0EC
:101DE000660F771F881F991F1AF0BA95C9F714C09C
:101DF000B13091F00E94E70FB1E008950C94E70F25
:101E0000672F782F8827B85F39F0B93FCCF38695D4
:101E100077956795B395D9F73EF490958095709531
:101E200061957F4F8F4F9F4F0895E89409C097FBAE
:101E30003EF490958095709561957F4F8F4F9F4FA1
:101E40009923A9F0F92F96E9BB279395F6958795E5
:101E500077956795B795F111F8CFFAF4BB0F11F4A8
:101E600060FF1BC06F5F7F4F8F4F9F4F16C088234F
:101E700011F096E911C0772321F09EE8872F762F85
:101E800005C0662371F096E8862F70E060E02AF0C6
:101E90009A95660F771F881FDAF7880F96958795B2
:101EA00097F90895990F0008550FAA0BE0E8FEEF87
:101EB00016161706E807F907C0F012161306E4070E
:101EC000F50798F0621B730B840B950B39F40A2607
:101ED00061F0232B242B252B21F408950A2609F4E5
:101EE000A140A6958FEF811D811D089597F99F67E9
:101EF00080E870E060E008959FEF80EC0895DF9344
:101F0000CF931F930F93FF92EF92DF927B018C018F
:101F1000689406C0DA2EEF010E940E10FE01E894CC
:101F2000A5912591359145915591A6F3EF010E9418
:101F3000EB0DFE019701A801DA9469F7DF90EF90AD
:101F4000FF900F911F91CF91DF91089500240A9483
:101F50001616170618060906089500240A94121684
:101F60001306140605060895092E0394000C11F4B7
:101F7000882352F0BB0F40F4BF2B11F460FF04C064
:101F80006F5F7F4F8F4F9F4F089557FD9058440FBD
:101F9000551F59F05F3F71F04795880F97FB991FC8
:101FA00061F09F3F79F08795089512161306140685
:101FB000551FF2CF4695F1DF08C016161706180612
:101FC000991FF1CF86957105610508940895E894ED
:101FD000BB2766277727CB0197F908950E94520FF8
:101FE00008F48FEF08959B01AC0160E070E080E899
:101FF0009FE30C94740E0E940E100C94B40F0E9478
:10200000A60F38F00E94AD0F20F0952311F00C942C
:10201000760F0C947C0F11240C94E80F0E94C50FCE
:1020200070F3959FC1F3950F50E0551F629FF0012B
:10203000729FBB27F00DB11D639FAA27F00DB11D44
:10204000AA1F649F6627B00DA11D661F829F2227CD
:10205000B00DA11D621F739FB00DA11D621F839F54
:10206000A00D611D221F749F3327A00D611D231F2A
:10207000849F600D211D822F762F6A2F11249F5778
:1020800050409AF0F1F088234AF0EE0FFF1FBB1F7B
:10209000661F771F881F91505040A9F79E3F51053A
:1020A00080F00C94760F0C94E80F5F3FE4F3983EB9
:1020B000D4F3869577956795B795F795E7959F5FE4
:1020C000C1F7FE2B880F911D9695879597F9089576
:1020D00019F416F40C947C0F0C94B7100E94CD0FD9
:1020E000B8F39923C9F3B6F39F57550B87FF0E94A6
:1020F000C5100024A0E640EA9001805856959795B7
:1021000028F4805C660F771F881F20F0261737079A
:10211000480730F4621B730B840B202931294A2BAA
:10212000A69517940794202531254A2758F7660F5E
:10213000771F881F20F026173707480730F4620BF7
:10214000730B840B200D311D411DA09581F7B90142
:10215000842F9158880F9695879508959B01AC011F
:102160000C94FB0F0E94520F880B990B08959F3F10
:1021700031F0915020F4879577956795B795880F42
:10218000911D9695879597F9089591505040660F47
:10219000771F881FD2F70895A1E21A2EAA1BBB1B36
:1021A000FD010DC0AA1FBB1FEE1FFF1FA217B30723
:1021B000E407F50720F0A21BB30BE40BF50B661F39
:1021C000771F881F991F1A9469F7609570958095FD
:1021D00090959B01AC01BD01CF010895EE0FFF1F4B
:0C21E0000590F491E02D0994F894FFCFD5
:1021EC00000000006101C100EE00AE011F01FD0006
:1021FC00110100000000D903AC030D049503A503E5
:10220C00990096036E616E00696E66006F766600CB
:10221C000D0A004163634572726F72583A20004197
:10222C0063634572726F72593A20004779726F4539
:10223C0072726F72583A20004779726F4572726FE2
:10224C0072593A20004779726F4572726F725A3A1E
:04225C0020002F002F
:00000001FF
