:100000000C9460000C9488000C9488000C94880078
:100010000C9488000C9488000C9488000C94880040
:100020000C9488000C9488000C9488000C94880030
:100030000C9488000C9488000C9488000C94880020
:100040000C94110A0C9488000C94DF090C94B909E3
:100050000C9488000C9488000C9488000C94880000
:100060000C945B0A0C948800000000080002010058
:100070000003040700000000000000000000000072
:10008000250028002B0000000000240027002A0083
:10009000040404040404040402020202020203032E
:1000A0000303030301020408102040800102040836
:1000B0001020010204081020302E332E38007A0B55
:1000C00011241FBECFEFD8E0DEBFCDBF11E0A0E00E
:1000D000B1E0E2E5F1E202C005900D92A83FB10760
:1000E000D9F723E0A8EFB1E001C01D92A73AB2070B
:1000F000E1F710E0C0E6D0E004C02197FE010E94C5
:100100009210CF35D107C9F70E94D90B0C94A710D4
:100110000C94000008950895AF92BF92CF92DF92A1
:10012000EF92FF920F931F93CF93DF936C017B01AC
:100130008B01040F151FEB015E01AE18BF08C0173D
:10014000D10759F06991D601ED91FC910190F081B0
:10015000E02DC6010995892B79F7C501DF91CF9173
:100160001F910F91FF90EF90DF90CF90BF90AF90D5
:100170000895FC01538D448D252F30E0842F90E0AD
:10018000821B930B541710F0CF9608950197089592
:10019000FC01918D828D981761F0A28DAE0FBF2F5B
:1001A000B11D5D968C91928D9F5F9F73928F90E0B1
:1001B00008958FEF9FEF0895FC01918D828D981720
:1001C00031F0828DE80FF11D858D90E008958FEF5D
:1001D0009FEF0895FC01918D228D892F90E0805C26
:1001E0009F4F821B91098F739927089583EC92E0AA
:1001F0000E94EA0021E0892B09F420E0822F089573
:1002000080E090E0892B29F00E94F60081110C9487
:1002100000000895FC01A48DA80FB92FB11DA35AA9
:10022000BF4F2C91848D90E001968F739927848F16
:10023000A689B7892C93A089B1898C918370806439
:100240008C93938D848D981306C00288F389E02DDA
:1002500080818F7D80830895EF92FF920F931F938B
:10026000CF93DF93EC0181E0888F9B8D8C8D981369
:100270001AC0E889F989808185FF15C09FB7F89475
:10028000EE89FF896083E889F989808183708064C1
:1002900080839FBF81E090E0DF91CF911F910F910C
:1002A000FF90EF900895F62E0B8D10E00F5F1F4F1B
:1002B0000F731127E02E8C8D8E110CC00FB607FC2A
:1002C000FACFE889F989808185FFF5CFCE010E94B8
:1002D0000A01F1CFEB8DEC0FFD2FF11DE35AFF4F1B
:1002E000F0829FB7F8940B8FEA89FB898081806246
:1002F000CFCFCF93DF93EC01888D8823B9F0AA8903
:10030000BB89E889F9898C9185FD03C0808186FDD0
:100310000DC00FB607FCF7CF8C9185FFF2CF80811F
:1003200085FFEDCFCE010E940A01E9CFDF91CF9189
:10033000089590E0FC01E859FF4F2491FC01EC5531
:10034000FF4F3491FC01E057FF4FE491EE23C9F0D9
:10035000222339F0233001F1A8F4213019F12230A1
:1003600029F1F0E0EE0FFF1FE458FF4FA591B49183
:100370008FB7F894EC91611126C030953E233C93E1
:100380008FBF08952730A9F02830C9F0243049F7ED
:10039000809180008F7D03C0809180008F77809353
:1003A0008000DFCF84B58F7784BDDBCF84B58F7DB0
:1003B000FBCF8091B0008F778093B000D2CF809137
:1003C000B0008F7DF9CF3E2BDACF3FB7F894809104
:1003D000490290914A02A0914B02B0914C0226B57D
:1003E000A89B05C02F3F19F00196A11DB11D3FBF6D
:1003F000BA2FA92F982F8827BC01CD01620F711D3C
:10040000811D911D42E0660F771F881F991F4A9535
:10041000D1F708958F929F92AF92BF92CF92DF92C1
:10042000EF92FF920E94E5014B015C0188EEC82E1D
:1004300083E0D82EE12CF12C0E94E501681979099E
:100440008A099B09683E734081059105A8F321E064
:10045000C21AD108E108F10888EE880E83E0981EE0
:10046000A11CB11CC114D104E104F10429F7FF90CF
:10047000EF90DF90CF90BF90AF909F908F900895B6
:1004800020912102260F3327331F21323105ECF44E
:100490002091BD02FC0190E080E0243069F082E010
:1004A0000895A09121022191AC014F5F5D4FA40FEF
:1004B000B52FB11D2C930196861798F380912102D8
:1004C000680F6093210280E0089581E00895109202
:1004D000BD0281E080939C021092970261E082E16C
:1004E0000E94990161E083E10E949901E9EBF0E04B
:1004F00080818E7F808380818D7F808388E480935C
:10050000B80085E48093BC000895CF93DF9391E019
:10051000909300028823B9F0C091B800D091BA003E
:100520008091BC008A7B8093BC0060E082E10E94E5
:10053000990160E083E10E9499010E946702D093D3
:10054000BA00C093B800DF91CF910895CF92DF92A7
:10055000EF92FF920F931F93CF93DF93D82FC62F65
:10056000613208F098C00E94E5016B017C01809126
:10057000BD0281116BC081E08093BD0280939C021B
:100580009FEF90939B0210929A029C0F9093990276
:100590008093980280919802DD0FD82BD093980217
:1005A00080919702813009F078C0109297020E94E2
:1005B000E5016B017C01809198028093BB008091E2
:1005C000BF029091C002A091C102B091C202892BDA
:1005D0008A2B8B2BA1F00E94E5010091BF021091A4
:1005E000C0022091C1023091C2026C197D098E09AE
:1005F0009F09061717072807390708F448C0809194
:10060000BC0083FDD8CF85EC8093BC000E94E5013F
:100610006B017C018091BD02813009F440C0809162
:100620009A028C1710F4C0919A02E7E7F2E0ADE964
:10063000B2E080E08C1355C08C2FDF91CF911F91D9
:100640000F91FF90EF90DF90CF9008958091BF02BF
:100650009091C002A091C102B091C202892B8A2B55
:100660008B2B09F484CF0E94E5010091BF02109109
:10067000C0022091C1023091C2026C197D098E091D
:100680009F09061717072807390708F070CF8091D0
:10069000BE020E948502C0E0CFCF85EEB5CF80912B
:1006A000BF029091C002A091C102B091C202892BF9
:1006B0008A2B8B2B09F4AECF0E94E5010091BF027B
:1006C0001091C0022091C1023091C2026C197D09C3
:1006D0008E099F09061717072807390708F09ACFD0
:1006E000D6CF91919D938F5FA5CF8F929F92AF921E
:1006F000BF92CF92DF92EF92FF920F931F93CF930F
:10070000DF93D0917602D13208F0D7C0182FC09174
:1007100075020E94E5016B017C018091BD0281118F
:100720006BC082E08093BD0210939C028FEF809398
:100730009B0210929A02D0939902A5E5B2E0E7E7F6
:10074000F2E080E0D81391C0109298028091980254
:10075000CC0FC82BC093980280919702813009F08A
:1007600088C0109297020E94E5016B017C01809184
:1007700098028093BB008091BF029091C002A0912B
:10078000C102B091C202892B8A2B8B2BA1F00E944F
:10079000E5010091BF021091C0022091C102309189
:1007A000C2026C197D098E099F09061717072807D1
:1007B000390708F442C08091BC0083FDD8CF85EC96
:1007C0008093BC000E94E5016B017C018091BD0219
:1007D000823009F450C080919B028F3F09F46FC0B2
:1007E00080919B02803209F46CC080919B0280331F
:1007F00009F469C084E026C08091BF029091C002D4
:10080000A091C102B091C202892B8A2B8B2B09F4D3
:1008100084CF0E94E5018090BF029090C002A0901A
:10082000C102B090C2026C197D098E099F0986161B
:100830009706A806B90608F070CF8091BE020E9404
:10084000850285E0109254021092760210925302B3
:10085000DF91CF911F910F91FF90EF90DF90CF909C
:10086000BF90AF909F908F9008959D9191938F5FCF
:1008700069CF85EEA5CF8091BF029091C002A09173
:10088000C102B091C202892B8A2B8B2B09F49ECF17
:100890000E94E5010091BF021091C0022091C102A7
:1008A0003091C2026C197D098E099F09061717073E
:1008B0002807390708F08ACFC0CF81E0C3CF80E096
:1008C000C1CF82E0BFCF83E0BDCFCF93DF93CCE633
:1008D000D3E0A9ADBAAD988121E020935302909363
:1008E00075021092540210927602ED91FC911197CC
:1008F0000190F081E02D682FCD01099581E00E94E3
:10090000750390E09B8B8A8BDF91CF9108958F9236
:100910009F92AF92BF92CF92DF92EF92FF920F938E
:100920001F93CF93DF93CDB7DEB72A970FB6F89416
:10093000DEBF0FBECDBF9AE0E0E0F1E0DE01119630
:1009400001900D929A95E1F76D3060F16CE018EF2F
:10095000160F912F990F890F0E946504612F70E087
:10096000660F771F81E090E08C0F9D1F680F791F45
:10097000FB01C080D1800E94E5014B015C01F12C9C
:10098000E12C03E210E00E94E501681979098A0967
:100990009B096C157D058E059F0540F4C8010197E4
:1009A000F1F7F1CF683098F668E0D1CF2A960FB60C
:1009B000F894DEBF0FBECDBFDF91CF911F910F9195
:1009C000FF90EF90DF90CF90BF90AF909F908F906F
:1009D00008950895E091520280915102E81730F491
:1009E000F0E0E356FD4F808190E008958FEF9FEF98
:1009F000089590915202809151022FEF3FEF981786
:100A000048F4E92FF0E0E356FD4F208130E09F5F8E
:100A100090935202C901089580915102909152021F
:100A2000891B990B0895CF92DF92EF92FF920F935B
:100A30001F93CF93DF937C01CB018A012091530256
:100A4000222389F0EB016B01C40ED51ECC15DD0508
:100A500069F06991D701ED91FC910190F081E02D51
:100A6000C7010995F3CF642F0E944002C801DF91AE
:100A7000CF911F910F91FF90EF90DF90CF9008954D
:100A8000CF93DF931F92CDB7DEB7698320915302D6
:100A90002223F9F020917602203258F021E030E054
:100AA000FC013383228390E080E00F90DF91CF91AF
:100AB000089580915402E82FF0E0EB5AFD4F9981A0
:100AC00090838F5F809354028093760281E090E060
:100AD000ECCF61E0CE0101960E944002F7CF90E09A
:100AE00080E00895FC0101900020E9F73197AF0103
:100AF000481B590BBC0183EC92E00C948C008F9244
:100B00009F92AF92BF920F931F93CF93DF93CDB776
:100B1000DEB7A1970FB6F894DEBF0FBECDBF19A206
:100B2000423008F44AE08E010F5D1F4F842E912C55
:100B3000B12CA12CA50194010E946510E62FB901EA
:100B4000CA01EA30F4F4E05DD801EE938D01232B65
:100B5000242B252B79F790E080E0109719F0CD0138
:100B60000E947205A1960FB6F894DEBF0FBECDBFEE
:100B7000DF91CF911F910F91BF90AF909F908F9079
:100B80000895E95CE1CF8EE291E00C947205CF9379
:100B9000DF930E947205EC010E94C3058C0F9D1F1C
:100BA000DF91CF9108954F925F926F927F928F92D3
:100BB0009F92AF92BF92CF92DF92EF92FF920F93EC
:100BC0001F93CF936B017C01742EAC019B010E949B
:100BD0005010882399F081E391E0CF911F910F91FC
:100BE000FF90EF90DF90CF90BF90AF909F908F904D
:100BF0007F906F905F904F900C9472054601570163
:100C0000E894B7F82FEF3FEF4FE75FE7C501B40176
:100C10000E94501081110DC02FEF3FEF4FE75FE7AB
:100C2000C501B4010E947F0E18161CF485E391E003
:100C3000D4CF2FEF3FEF4FE75FE4C701B6010E942B
:100C4000DE0F18161CF489E391E0C7CF2FEF3FEFBA
:100C50004FE75FECC701B6010E947F0E87FDF3CF1F
:100C600020E030E0A901C701B6010E947F0E10E02C
:100C700000E087FF0AC06DE283EC92E00E942C0145
:100C80008C01F7FAF094F7F8F094C0E060E070E0BF
:100C900080E09FE37C1641F020E030E040E251E448
:100CA0000E94840ECF5FF6CFA70196010E94130E1B
:100CB0002B013C010E94FD0E4B015C014AE00E94A9
:100CC0007F057C01E00EF11ECC23C1F1C501B4010A
:100CD0000E942C0F9B01AC01C301B2010E94120EB5
:100CE0004B015C016EE283EC92E00E942C01E80E65
:100CF000F91EC15018F120E030E040E251E4C50196
:100D0000B4010E94E30F2B013C010E94FD0E4B0138
:100D1000B12CA12C4AE0C501B4010E947F05E80E68
:100D2000F91EC501B4010E942C0F9B01AC01C30147
:100D3000B2010E94120E4B015C01DBCFC701CF91C3
:100D40001F910F91FF90EF90DF90CF90BF90AF90E9
:100D50009F908F907F906F905F904F9008958F92AB
:100D60009F92AF92BF92CF92DF92EF92FF9280E07C
:100D70000E94650480917E0390917F03892B61F02E
:100D800060E070E0CB01FF90EF90DF90CF90BF90DC
:100D9000AF909F908F90089563E080916C030E94C4
:100DA000A6021092520280935102833048F3809140
:100DB000A5039091A603DC01ED91FC910284F385DB
:100DC000E02D0995092E000CAA0BBB0B5C019924A0
:100DD00088248091A5039091A603DC01ED91FC91FC
:100DE0000284F385E02D09956C01990FEE08FF0848
:100DF000FE2CED2CDC2CCC24C80CD91CEA1CFB1CD2
:100E00008091A5039091A603DC01ED91FC910284F1
:100E1000F385E02D0995BC01990F880B990B6C0D9A
:100E20007D1D8E1D9F1DAFCF4F925F926F927F925F
:100E30008F929F92AF92BF92CF92DF92EF92FF92EA
:100E4000CF93DF93CDB7DEB766970FB6F894DEBFCA
:100E50000FBECDBF0E94E5016093FC017093FD01C0
:100E60008093FE019093FF01F0906D036F2D80E45D
:100E70000E94870420917E0330917F033E8B2D8B4F
:100E8000232B09F061C10E94AF066D877E878F8793
:100E9000988B80917E0390917F039E8B8D8B892B05
:100EA00009F052C16F2D80E50E94870420917E03D6
:100EB00030917F033E8B2D8B232B09F045C10E947F
:100EC000AF0620917E0330917F033E8B2D8B232B29
:100ED00009F03AC10E942C0F2091940330919503A0
:100EE00040919603509197030E94120E6B017C0172
:100EF000209198033091990340919A0350919B035C
:100F00000E94E30F20E030E04AEF54E40E94130E09
:100F10000E94F60E4B015C0180926E0390926F036B
:100F2000A0927003B09271032091900330919103CD
:100F30004091920350919303C701B6010E94E30FC1
:100F4000209188033091890340918A0350918B034B
:100F50000E94130E2B013C0120918C0330918D03D4
:100F600040918E0350918F03C701B6010E94E30F99
:100F7000209184033091850340918603509187032B
:100F80000E94130E69837A838B839C838091A403D0
:100F9000882309F4A0C030ED831637E09306A1043E
:100FA000B1040CF098C0A7019601C701B6010E94D8
:100FB000E30F20E030E040E050E30E94E30F698B54
:100FC0007A8B8B8B9C8BC501B401605D7740810966
:100FD00091099B01AC010E9455100E942E0F6B01DC
:100FE0007C0120E030E040E250E40E94E30F6D839A
:100FF0007E838F83988720E030E040EA5FE3C7017B
:10100000B6010E94E30F6B017C0184E288168AEF2F
:1010100098068FEFA806B806A4F5C501B40164527E
:101020007A4F8F4F9F4F9B01AC010E9455100E9439
:101030002E0F69877A878B879C8720E030E040EE0F
:1010400050E40E94E30F9B01AC016D817E818F8192
:1010500098850E94130E6D837E838F83988720E08E
:1010600030E040EB50E469857A858B859C850E9451
:10107000E30F9B01AC01C701B6010E94130E6B0187
:101080007C01C501B4010E942E0F29893A894B8940
:101090005C890E94120E0E94F60E60936E0370939C
:1010A0006F0380937003909371032D813E814F8174
:1010B0005885C301B2010E94120E2B013C01A70109
:1010C000960169817A818B819C810E94120E6983CD
:1010D0007A838B839C836D857E858F8598890E941A
:1010E0002C0F29813A814B815C810E94E30F20E023
:1010F00030E040E055E30E94E30FA30192010E941B
:10110000120E20E030E040E058E30E94E30F0E941E
:10111000F60E60937203709373038093740390933D
:1011200075032FB7F8948091450290914602A091E3
:101130004702B09148022FBF80939C0390939D0378
:10114000A0939E03B0939F030E94E5016093F80172
:101150007093F9018093FA019093FB012D893E89E8
:10116000232BA1F18DE391E00E9472058D899E8968
:101170006C01990FEE08FF084AE0C701B601F7FEBF
:101180000DC06DE283EC92E00E942C016627772768
:10119000CB016C197D098E099F094AE00E947F05E9
:1011A00066960FB6F894DEBF0FBECDBFDF91CF912C
:1011B000FF90EF90DF90CF90BF90AF909F908F9077
:1011C0007F906F905F904F900C94C3058DE491E0F9
:1011D0000E947205C0907A03D0907B03E0907C035C
:1011E000F0907D0320E030E0A901C701B6010E9424
:1011F0007F0E81115CC060916E0370916F038091CE
:101200007003909171030E942E0F2AE037ED43E2A4
:101210005CE30E94E30F42E00E94D30581E591E088
:101220000E94720588E591E00E947205C0907603E5
:10123000D0907703E0907803F090790320E030E0DD
:10124000A901C701B6010E947F0E811145C06091BE
:1012500072037091730380917403909175030E94DF
:101260002E0F2AE037ED43E25CE30E94E30F42E0F9
:101270000E94D3058DE591E00E94720589E691E018
:101280000E9472056091F8017091F9018091FA0154
:101290009091FB01C090FC01D090FD01E090FE0117
:1012A000F090FF016C197D098E099F0976CF60913E
:1012B0006E0370916F0380917003909171030E948F
:1012C0002E0F2AE037ED43E25CE30E94E30FA70113
:1012D00096010E94130E9FCF609172037091730369
:1012E00080917403909175030E942E0F2AE037EDD0
:1012F00043E25CE30E94E30FA70196010E94130EF4
:10130000B6CF85ED8093BC008091BF029091C00262
:10131000A091C102B091C2020796A11DB11D23E0A8
:10132000B695A795979587952A95D1F72091BC00FA
:1013300024FD03C01092BD0208954091BF02509158
:10134000C0026091C1027091C202452B462B472B0F
:1013500069F30097A105B10541F025E32A95F1F75E
:1013600000000197A109B109E1CF8091BE020C9460
:1013700085021F920F920FB60F9211242F933F9365
:101380004F935F936F937F938F939F93AF93BF938D
:10139000EF93FF9383EC92E00E940A01FF91EF919B
:1013A000BF91AF919F918F917F916F915F914F917D
:1013B0003F912F910F900FBE0F901F9018951F9285
:1013C0000F920FB60F9211242F938F939F93EF9349
:1013D000FF93E091D302F091D4028081E091D90291
:1013E000F091DA0282FD1BC090818091DC028F5F58
:1013F0008F732091DD02821741F0E091DC02F0E072
:10140000ED53FD4F958F8093DC02FF91EF919F91FB
:101410008F912F910F900FBE0F901F901895808184
:10142000F4CF1F920F920FB60F9211242F933F9378
:101430008F939F93AF93BF93809145029091460203
:10144000A0914702B09148023091440223E0230F5B
:101450002D3758F50196A11DB11D209344028093AC
:10146000450290934602A0934702B09348028091B0
:10147000490290914A02A0914B02B0914C02019610
:10148000A11DB11D8093490290934A02A0934B0283
:10149000B0934C02BF91AF919F918F913F912F914B
:1014A0000F900FBE0F901F90189526E8230F0296FD
:1014B000A11DB11DD2CF1F920F920FB60F92112412
:1014C0002F933F934F935F936F937F938F939F934C
:1014D000AF93BF93EF93FF938091B900887F8036DD
:1014E00009F44AC0F0F5883209F4A7C018F5803134
:1014F00009F49BC0B8F4882309F4F9C0883009F4D2
:1015000094C0FF91EF91BF91AF919F918F917F9187
:101510006F915F914F913F912F910F900FBE0F9060
:101520001F901895883109F488C0803251F7809354
:101530009B0214C0803409F49DC040F48033B9F399
:101540008833F9F680939B0285ECB0C0803509F4AE
:1015500085C0883509F496C0883499F60E948109BF
:10156000D0CF883909F48CC038F5883729F050F489
:10157000883611F0803729F683E08093BD021092FF
:10158000430257C0883809F47BC0803919F080388D
:1015900009F0B7CF80914302803208F071C0E0912A
:1015A000430281E08E0F809343028091BB00F0E004
:1015B000ED5DFD4F80833DC0803B39F0E0F4803A23
:1015C00009F479C0883A09F09CCF84E08093BD0289
:1015D0001092220210922102E0914F02F0915002EB
:1015E00009958091210281110FC081E08093210231
:1015F0001092010209C0803C09F4A6CF883C09F48E
:10160000A3CF883B09F07DCFE091220281E08E0FCD
:1016100080932202F0E0EF5FFD4F80818093BB005A
:10162000909122028091210229C08091980280939A
:10163000BB0085EC8093BC0064CF90919A028091AE
:101640009902981758F5E0919A0281E08E0F8093E5
:101650009A02F0E0E958FD4F8081E9CFE0919A02CB
:1016600081E08E0F80939A028091BB00F0E0E958F0
:10167000FD4F808390919A02809199029817C8F249
:1016800085E8D8CFE0919A0281E08E0F80939A028C
:101690008091BB00F0E0E958FD4F808380919C026F
:1016A00081115CCF81E08093970284EA8093BC0033
:1016B0001092BD0226CF85EC8093BC001092BD0233
:1016C00080914302803230F4E0914302F0E0ED5D1E
:1016D000FD4F10826091430270E0E0914D02F09165
:1016E0004E0283E292E00995109243020ACF1092D3
:1016F0009B0234CFE3ECF2E01382128288EE93E097
:10170000A0E0B0E084839583A683B7832EE031E028
:101710003183208325EC30E03587248724EC30E0CA
:101720003787268720EC30E0318B208B21EC30E0AE
:10173000338B228B22EC30E0358B248B26EC30E08F
:10174000378B268B118E128E138E148EE0E6F3E00B
:101750001382128284839583A683B78380E291E00B
:1017600091838083ECE6F3E087E7808388E08183E0
:1017700089E19CEFAFEFBFEF82839383A483B583AE
:1017800086839783A087B187938B828B10AA11AA37
:1017900012AA13AA14AA15AA16AA17AA12861386A1
:1017A0001486158616861786108A118A81E080AF06
:1017B0000895789484B5826084BD84B5816084BDC9
:1017C00085B5826085BD85B5816085BD80916E00DF
:1017D000816080936E001092810080918100826010
:1017E000809381008091810081608093810080914D
:1017F00080008160809380008091B100846080933C
:10180000B1008091B00081608093B00080917A0037
:10181000846080937A0080917A00826080937A005D
:1018200080917A00816080937A0080917A0080684C
:1018300080937A001092C100E091D302F091D4021B
:1018400082E08083E091CF02F091D0021082E0919B
:10185000D102F091D20280E180831092DB02E0910C
:10186000D702F091D80286E08083E091D502F09112
:10187000D602808180618083E091D502F091D6020A
:10188000808188608083E091D502F091D6028081CA
:1018900080688083E091D502F091D60280818F7DAF
:1018A0008083E1EBF0E02491EDE9F0E0849188237E
:1018B00099F090E0880F991FFC01EA57FF4FA5911E
:1018C000B491FC01E458FF4F859194918FB7F8943F
:1018D000EC91E22BEC938FBF0E94C3058EE691E062
:1018E0000E94C7058DEB91E00E947205C8EBD0E025
:1018F000FE016491662339F083EC92E00E942C0192
:101900002196892BA9F70E94C30580916C03865705
:10191000823008F076C180E693E09093A60380932E
:10192000A50310925202109251021092540210928A
:1019300076020E9467028AE890E0909350028093BA
:101940004F028BE890E090934E0280934D0280917D
:101950006C0391E0909353028093750281E00E94A2
:101960007503382E81114DC18EE10E9465040E94DD
:10197000E5014B015C01C3E2D0E00E94E50168197A
:1019800079098A099B09603F7A408105910520F415
:10199000CE010197F1F7F1CF80E090E0A0E8BFE33E
:1019A0008093800390938103A0938203B093830379
:1019B00080E090E0A0E0B7E48093840390938503F7
:1019C000A0938603B093870380E090E0A0E8B7E49B
:1019D0008093880390938903A0938A03B0938B0329
:1019E00080E090E0A0E8BBE380938C0390938D03AC
:1019F000A0938E03B0938F0380E090E0A0E0BCE35F
:101A00008093900390939103A0939203B0939303D8
:101A100080E090E0A0E8B3E4809394039093950372
:101A2000A0939603B093970380E090E0A0E0B4E326
:101A30008093980390939903A0939A03B0939B0388
:101A4000C0E8D3E02224239480E5830D880F0E9410
:101A5000650480917E0390917F03892B09F4A9C0CE
:101A600010E000E089909990A990B9907E01B4E0CF
:101A7000EB1AF1082801712C612CC301B8010E94F6
:101A80002C0FA50194010E94E30FF701608371837D
:101A9000828393838091A0039091A103A091A203DC
:101AA000B091A30324E0880F991FAA1FBB1F2A959A
:101AB000D1F780279525A625B7258093A00390937D
:101AC000A103A093A203B093A303332039F02220F3
:101AD00029F022242394012B09F4212C3394F7E0DC
:101AE0003F12B2CF222009F48CC082ED91E00E9417
:101AF000C7050E94C305C8E0D9E01AE00BE08CE0FE
:101B0000F82E90E0C92E90E0D92E61E08DE00E9481
:101B10009901C0936D030E94140760E08DE00E945C
:101B200099010E940A0261E08DE00E949901D09320
:101B30006D030E94140760E08DE00E9499010E94ED
:101B40000A0261E08DE00E94990110936D030E94EA
:101B5000140760E08DE00E9499010E940A0261E092
:101B60008DE00E94990100936D030E94140760E0CC
:101B70008DE00E9499010E940A0261E08DE00E94BE
:101B80009901F0926D030E94140760E08DE00E94BD
:101B900099010E940A020E94C305C114D10409F4EC
:101BA000B4CF0E94F600882309F4AFCF0E94000052
:101BB000ACCF62E080916C030E94A60210925202A8
:101BC00080935102823008F44BCF8091A50390910D
:101BD000A603DC01ED91FC910284F385E02D0995CB
:101BE000D82EC12C8091A5039091A603DC01ED9124
:101BF000FC910284F385E02D09958C010C0D1D1DCF
:101C000031CF80EE91E00E94C70561E08DE00E9437
:101C100099010E940A0260E08DE00E9499010E94F1
:101C20000A02F3CF5058BB27AA270E942A0E0C9411
:101C3000A40F0E94960F38F00E949D0F20F039F4F7
:101C40009F3F19F426F40C94930F0EF4E095E7FBF4
:101C50000C948D0FE92F0E94B50F58F3BA17620745
:101C600073078407950720F079F4A6F50C94D70F35
:101C70000EF4E0950B2EBA2FA02D0B01B9019001A7
:101C80000C01CA01A0011124FF27591B99F0593FEB
:101C900050F4503E68F11A16F040A22F232F342F33
:101CA0004427585FF3CF469537952795A795F04081
:101CB0005395C9F77EF41F16BA0B620B730B840B96
:101CC000BAF09150A1F0FF0FBB1F661F771F881F4E
:101CD000C2F70EC0BA0F621F731F841F48F48795A6
:101CE00077956795B795F7959E3F08F0B0CF939598
:101CF000880F08F09927EE0F9795879508950E9411
:101D0000690F08F481E008950E94980E0C94A40FC6
:101D10000E949D0F58F00E94960F40F029F45F3FFB
:101D200029F00C948D0F51110C94D80F0C94930F33
:101D30000E94B50F68F39923B1F3552391F3951BD6
:101D4000550BBB27AA2762177307840738F09F5FDC
:101D50005F4F220F331F441FAA1FA9F335D00E2E49
:101D60003AF0E0E832D091505040E695001CCAF7B6
:101D70002BD0FE2F29D0660F771F881FBB1F261779
:101D800037074807AB07B0E809F0BB0B802DBF0150
:101D9000FF2793585F4F3AF09E3F510578F00C941F
:101DA0008D0F0C94D80F5F3FE4F3983ED4F38695E3
:101DB00077956795B795F7959F5FC9F7880F911D40
:101DC0009695879597F90895E1E0660F771F881F2C
:101DD000BB1F621773078407BA0720F0621B730BDF
:101DE000840BBA0BEE1F88F7E09508950E94FD0E54
:101DF0006894B1110C94D80F08950E94BD0F88F01B
:101E00009F5798F0B92F9927B751B0F0E1F0660FBE
:101E1000771F881F991F1AF0BA95C9F714C0B130FF
:101E200091F00E94D70FB1E008950C94D70F672F5F
:101E3000782F8827B85F39F0B93FCCF3869577952E
:101E40006795B395D9F73EF4909580957095619517
:101E50007F4F8F4F9F4F0895E89409C097FB3EF442
:101E600090958095709561957F4F8F4F9F4F9923E7
:101E7000A9F0F92F96E9BB279395F6958795779565
:101E80006795B795F111F8CFFAF4BB0F11F460FF25
:101E90001BC06F5F7F4F8F4F9F4F16C0882311F07D
:101EA00096E911C0772321F09EE8872F762F05C091
:101EB000662371F096E8862F70E060E02AF09A952C
:101EC000660F771F881FDAF7880F9695879597F921
:101ED0000895990F0008550FAA0BE0E8FEEF1616BB
:101EE0001706E807F907C0F012161306E407F5070E
:101EF00098F0621B730B840B950B39F40A2661F082
:101F0000232B242B252B21F408950A2609F4A14024
:101F1000A6958FEF811D811D089597F99F6780E831
:101F200070E060E008959FEF80EC089500240A942B
:101F30001616170618060906089500240A941216A4
:101F40001306140605060895092E0394000C11F4D7
:101F5000882352F0BB0F40F4BF2B11F460FF04C084
:101F60006F5F7F4F8F4F9F4F089557FD9058440FDD
:101F7000551F59F05F3F71F04795880F97FB991FE8
:101F800061F09F3F79F087950895121613061406A5
:101F9000551FF2CF4695F1DF08C016161706180632
:101FA000991FF1CF86957105610508940895E8940D
:101FB000BB2766277727CB0197F908950E94690F01
:101FC00008F48FEF08950E94F60F0C94A40F0E945E
:101FD000960F38F00E949D0F20F0952311F00C947D
:101FE0008D0F0C94930F11240C94D80F0E94B50FF1
:101FF00070F3959FC1F3950F50E0551F629FF0015C
:10200000729FBB27F00DB11D639FAA27F00DB11D74
:10201000AA1F649F6627B00DA11D661F829F2227FD
:10202000B00DA11D621F739FB00DA11D621F839F84
:10203000A00D611D221F749F3327A00D611D231F5A
:10204000849F600D211D822F762F6A2F11249F57A8
:1020500050409AF0F1F088234AF0EE0FFF1FBB1FAB
:10206000661F771F881F91505040A9F79E3F51056A
:1020700080F00C948D0F0C94D80F5F3FE4F3983EE2
:10208000D4F3869577956795B795F795E7959F5F14
:10209000C1F7FE2B880F911D9695879597F90895A6
:1020A0000E94690F880B990B0895DB018F939F9312
:1020B0000E948710BF91AF91A29F800D911DA39F99
:1020C000900DB29F900D11240895A1E21A2EAA1B23
:1020D000BB1BFD010DC0AA1FBB1FEE1FFF1FA217D8
:1020E000B307E407F50720F0A21BB30BE40BF50BD5
:1020F000661F771F881F991F1A9469F7609570955E
:10210000809590959B01AC01BD01CF0108950E947F
:102110009810A59F900DB49F900DA49F800D911DC8
:1021200011240895EE0FFF1F0590F491E02D0994FE
:10213000A29FB001B39FC001A39F700D811D112408
:10214000911DB29F700D811D1124911D0895F89469
:02215000FFCFBF
:102152005802B004FC08F8118C23000000002C0186
:102162008C00B9007901EA00C800DC000000000020
:10217200400513056F05E9040C05F904EA040D0A8C
:10218200006E616E00696E66006F7666004572725F
:102192006F7220696E20726561643A2000543A09B8
:1021A2000028C2B04329090009503A0900286D6984
:1021B2006C6C6962617229090009743A0900443A37
:1021C2005C41726475696E6F5C4873686F705F51D1
:1021D200756F635C47592D38365F4873686F705C62
:1021E2006578616D706C65735C54656D705F42619A
:1021F200726F6D65747269635C54656D705F426184
:10220200726F6D65747269632E696E6F004D53351E
:102212003631315F4C49425F56455253494F4E3A2F
:1022220020004D533536313120666F756E642E00B5
:102232004D5335363131206E6F7420666F756E6482
:082242002E2068616C742E006F
:00000001FF
