:100000000C9474000C949C000C949C000C949C0028
:100010000C949C000C949C000C949C000C949C00F0
:100020000C949C000C949C000C949C000C949C00E0
:100030000C949C000C949C000C949C000C949C00D0
:100040000C942B070C949C000C94F9060C94D3068A
:100050000C949C000C949C000C949C000C949C00B0
:100060000C9475070C949C00084AD73B3BCE016E5C
:1000700084BCBFFDC12F3D6C74319ABD56833DDAFF
:100080003D00C77F11BED9E4BB4C3E916BAAAABE0E
:10009000000000803F000000000800020100000393
:1000A0000407000000000000000000000000250020
:1000B00028002B0000000000240027002A00040470
:1000C0000404040404040202020202020303030300
:1000D00003030102040810204080010204081020DC
:1000E000010204081020940811241FBECFEFD8E0AD
:1000F000DEBFCDBF11E0A0E0B1E0EEECFCE102C05C
:1001000005900D92AE37B107D9F723E0AEE7B1E025
:1001100001C01D92A931B207E1F710E0C4E7D0E0B9
:1001200004C02197FE010E945F0EC337D107C9F7B3
:100130000E94DE080C94650E0C940000089508954A
:10014000AF92BF92CF92DF92EF92FF920F931F93E5
:10015000CF93DF936C017B018B01040F151FEB0123
:100160005E01AE18BF08C017D10759F06991D601DA
:10017000ED91FC910190F081E02DC6010995892B4C
:1001800079F7C501DF91CF911F910F91FF90EF900B
:10019000DF90CF90BF90AF900895FC01538D448DB8
:1001A000252F30E0842F90E0821B930B541710F022
:1001B000CF96089501970895FC01918D828D98172F
:1001C00061F0A28DAE0FBF2FB11D5D968C91928D07
:1001D0009F5F9F73928F90E008958FEF9FEF089538
:1001E000FC01918D828D981731F0828DE80FF11D01
:1001F000858D90E008958FEF9FEF0895FC01918D1C
:10020000228D892F90E0805C9F4F821B91098F7314
:100210009927089587E492E00E94FE0021E0892B4F
:1002200009F420E0822F089580E090E0892B29F0E6
:100230000E940A0181110C9400000895FC01A48D14
:10024000A80FB92FB11DA35ABF4F2C91848D90E0F8
:1002500001968F739927848FA689B7892C93A089DB
:10026000B1898C91837080648C93938D848D981365
:1002700006C00288F389E02D80818F7D80830895F8
:10028000EF92FF920F931F93CF93DF93EC0181E0E6
:10029000888F9B8D8C8D98131AC0E889F98980818D
:1002A00085FF15C09FB7F894EE89FF896083E889C0
:1002B000F98980818370806480839FBF81E090E0B2
:1002C000DF91CF911F910F91FF90EF900895F62E3F
:1002D0000B8D10E00F5F1F4F0F731127E02E8C8DD9
:1002E0008E110CC00FB607FCFACFE889F98980811E
:1002F00085FFF5CFCE010E941E01F1CFEB8DEC0FF3
:10030000FD2FF11DE35AFF4FF0829FB7F8940B8F3A
:10031000EA89FB8980818062CFCFCF93DF93EC01A4
:10032000888D8823B9F0AA89BB89E889F9898C91DD
:1003300085FD03C0808186FD0DC00FB607FCF7CF99
:100340008C9185FFF2CF808185FFEDCFCE010E9499
:100350001E01E9CFDF91CF91089590E0FC01EA56AC
:10036000FF4F2491FC01EE52FF4F3491FC01E25407
:10037000FF4FE491EE23C9F0222339F0233001F13D
:10038000A8F4213019F1223029F1F0E0EE0FFF1F1F
:10039000E655FF4FA591B4918FB7F894EC91611198
:1003A00026C030953E233C938FBF08952730A9F097
:1003B0002830C9F0243049F7809180008F7D03C038
:1003C000809180008F7780938000DFCF84B58F7716
:1003D00084BDDBCF84B58F7DFBCF8091B0008F775C
:1003E0008093B000D2CF8091B0008F7DF9CF3E2BAB
:1003F000DACF3FB7F8948091E7019091E801A0919E
:10040000E901B091EA0126B5A89B05C02F3F19F07C
:100410000196A11DB11D3FBFBA2FA92F982F882784
:10042000BC01CD01620F711D811D911D42E0660F5F
:10043000771F881F991F4A95D1F7089520919F0132
:10044000260F3327331F21323105ECF420911D0292
:10045000FC0190E080E0243069F082E00895A091F2
:100460009F012191AC0141585E4FA40FB52FB11DE2
:100470002C930196861798F380919F01680F6093E3
:100480009F0180E0089581E0089510921D0281E0AF
:1004900080931C021092F70161E082E10E94AD019D
:1004A00061E083E10E94AD01E9EBF0E080818E7FA5
:1004B000808380818D7F808388E48093B80085E489
:1004C0008093BC000895CF93DF9391E090937E01D9
:1004D0008823B9F0C091B800D091BA008091BC00D7
:1004E0008A7B8093BC0060E082E10E94AD0160E005
:1004F00083E10E94AD010E944502D093BA00C093EF
:10050000B800DF91CF9108958F929F92AF92BF92E2
:10051000CF92DF92EF92FF920F931F93CF93DF93CF
:10052000D0914602D13208F0D7C0182FC0914502B1
:100530000E94F9016B017C0180911D0281116BC049
:1005400082E080931D0210931C028FEF80931B02A8
:1005500010921A02D0931902A5E2B2E0E9EFF1E09D
:1005600080E0D81391C01092F8018091F801CC0F6F
:10057000C82BC093F8018091F701813009F088C041
:100580001092F7010E94F9016B017C018091F80142
:100590008093BB0080911F0290912002A0912102C4
:1005A000B0912202892B8A2B8B2BA1F00E94F9019A
:1005B00000911F021091200220912102309122020D
:1005C0006C197D098E099F09061717072807390737
:1005D00008F442C08091BC0083FDD8CF85EC8093A5
:1005E000BC000E94F9016B017C0180911D028230E8
:1005F00009F450C080911B028F3F09F46FC08091B5
:100600001B02803209F46CC080911B02803309F414
:1006100069C084E026C080911F0290912002A091C1
:100620002102B0912202892B8A2B8B2B09F484CFD3
:100630000E94F90180901F0290902002A090210258
:10064000B09022026C197D098E099F0986169706C3
:10065000A806B90608F070CF80911E020E946302BE
:1006600085E0109224021092460210922302DF913C
:10067000CF911F910F91FF90EF90DF90CF90BF909F
:10068000AF909F908F9008959D9191938F5F69CFC8
:1006900085EEA5CF80911F0290912002A0912102AA
:1006A000B0912202892B8A2B8B2B09F49ECF0E94BA
:1006B000F90100911F021091200220912102309136
:1006C00022026C197D098E099F0906171707280752
:1006D000390708F08ACFC0CF81E0C3CF80E0C1CF17
:1006E00082E0BFCF83E0BDCF0F931F93CF93DF9303
:1006F0008A01E901209711F4C4EED2E091E09093D1
:100700002302809345021092240210924602E8814F
:10071000F9810190F081E02DCE010995E881F98100
:100720000190F081E02DD8016C91CE01099581E016
:100730000E94840291E0811190E0892FDF91CF9196
:100740001F910F9108950895E091F0018091EF01BC
:10075000E81730F4F0E0EE53FE4F808190E008950A
:100760008FEF9FEF08959091F0018091EF012FEFAF
:100770003FEF981748F4E92FF0E0EE53FE4F208149
:1007800030E09F5F9093F001C90108958091EF01DF
:100790009091F001891B990B0895CF92DF92EF920F
:1007A000FF920F931F93CF93DF937C01CB018A01BC
:1007B00020912302222389F0EB016B01C40ED51E88
:1007C000CC15DD0569F06991D701ED91FC9101909F
:1007D000F081E02DC7010995F3CF642F0E941E021E
:1007E000C801DF91CF911F910F91FF90EF90DF90A3
:1007F000CF900895CF93DF931F92CDB7DEB7698373
:10080000209123022223F9F020914602203258F051
:1008100021E030E0FC013383228390E080E00F9000
:10082000DF91CF91089580912402E82FF0E0EB5DF5
:10083000FD4F998190838F5F8093240280934602BD
:1008400081E090E0ECCF61E0CE0101960E941E02B3
:10085000F7CF90E080E00895FC0101900020E9F7D7
:100860003197AF01481B590BBC0187E492E00C940F
:10087000A0008F929F92AF92BF920F931F93CF933E
:10088000DF93CDB7DEB7A1970FB6F894DEBF0FBEEA
:10089000CDBF19A2423008F44AE08E010F5D1F4F10
:1008A000842E912CB12CA12CA50194010E945C0BEB
:1008B000E62FB901CA01EA30F4F4E05DD801EE9305
:1008C0008D01232B242B252B79F790E080E01097C6
:1008D00019F0CD010E942C04A1960FB6F894DEBF4A
:1008E0000FBECDBFDF91CF911F910F91BF90AF9001
:1008F0009F908F900895E95CE1CFCF92DF92EF92C5
:10090000FF92CF93DF9397FF1BC06B017C016DE2D9
:1009100087E492E00E944001EC0166277727CB0133
:100920006C197D098E099F094AE00E9439048C0FD9
:100930009D1FDF91CF91FF90EF90DF90CF900895B2
:100940004AE0DF91CF91FF90EF90DF90CF900C9431
:1009500039042F923F924F925F926F927F928F92C3
:100960009F92AF92BF92CF92DF92EF92FF920F933E
:100970001F93CF93DF93CDB7DEB72E970FB6F894C2
:10098000DEBF0FBECDBF8B836E8338872F831801E8
:100990008FB7F8944090E3015090E4016090E50136
:1009A0007090E6018FBFE114F10421F484EEE82E8B
:1009B00082E0F82E2B81220F2C83C42ED12C342FD1
:1009C00031953D834E871A82198210E001E0C10102
:1009D000B0E0A0E089879A87AB87BC87A981BA81FC
:1009E000AC15BD050CF028C100932302BB81B09368
:1009F00045021092240210924602D701ED91FC911B
:100A00000190F081E02D6E81C701099581E00E947F
:100A1000840200932302BB81B0934502109224020A
:100A2000109246020E94F9014B015C0180911D0267
:100A300081116EC02E852D87213210F030E23D8766
:100A400000931D0200931C024FEF40931B02109273
:100A50001A028D858150809319020093F8018091CC
:100A6000F8015C81852B8093F8018091F70181303A
:100A700009F098C01092F7010E94F9014B015C0146
:100A80008091F8018093BB0080911F029091200219
:100A9000A0912102B0912202892B8A2B8B2BA1F0ED
:100AA0000E94F90120911F02309120024091210201
:100AB00050912202681979098A099B09261737077C
:100AC0004807590708F445C08091BC0083FDD8CF82
:100AD00085EC8093BC000E94F9014B015C01809180
:100AE0001D02813009F462C080911A02AD858A1717
:100AF00018F4B0911A02BD87A9EFB1E0E2ECF1E081
:100B000080E02D85821751F19D9191938F5FF9CFF0
:100B100080911F0290912002A0912102B0912202A7
:100B2000892B8A2B8B2B09F481CF0E94F90120910C
:100B30001F02309120024091210250912202681937
:100B400079098A099B09261737074807590708F0CA
:100B50006DCF80911E020E9463021D861092F001EB
:100B60003D853093EF01D701ED91FC910084F18533
:100B7000E02DC7010995892B09F453C021143104D4
:100B8000B9F5D701ED91FC910284F385E02DC70101
:100B90000995EF81F885E10FF11D17FDFA95808326
:100BA0001F5FE1CF95EE9093BC0095CF80911F021F
:100BB00090912002A0912102B0912202892B8A2BD0
:100BC0008B2B09F48CCF0E94F90120911F023091E8
:100BD00020024091210250912202681979098A0964
:100BE0009B09261737074807590708F078CFB1CF78
:100BF0002FB7F8948091E3019091E401A091E50171
:100C0000B091E6012FBF84199509A609B709298576
:100C10003A854B855C8582179307A407B50708F4CE
:100C2000B0CF49815A814C0D5D1D5A8349835E8541
:100C30008D81580F5E87D2CE21143104F9F08FB721
:100C4000F8944091E3015091E4016091E5017091C5
:100C5000E6018FBF4419550966097709C101B0E063
:100C6000A0E0481759076A077B0740F0812F012E43
:100C7000000C990B8C159D050CF41FEF812F2E96FF
:100C80000FB6F894DEBF0FBECDBFDF91CF911F919D
:100C90000F91FF90EF90DF90CF90BF90AF909F901B
:100CA0008F907F906F905F904F903F902F9008951E
:100CB0008F929F92AF92BF92CF92DF92EF92FF926C
:100CC0000F931F93CF93DF9300D0CDB7DEB7B82E2D
:100CD000A62E842E922E6801780108EE13E09E0164
:100CE0002E5F3F4F41E00E94A90421E030E001C0A7
:100CF000220F8A94EAF78A819920D1F0822B8A8385
:100D000089839601AE014F5F5F4F6A2D8B2D0E9444
:100D100074030F900F90DF91CF911F910F91FF906F
:100D2000EF90DF90CF90BF90AF909F908F900895FD
:100D300020958223E4CF85ED8093BC0080911F0233
:100D400090912002A0912102B09122020796A11D4C
:100D5000B11D23E0B695A795979587952A95D1F76C
:100D60002091BC0024FD03C010921D020895409103
:100D70001F02509120026091210270912202452BA6
:100D8000462B472B69F30097A105B10541F025E3F8
:100D90002A95F1F700000197A109B109E1CF8091EF
:100DA0001E020C9463021F920F920FB60F92112431
:100DB0002F933F934F935F936F937F938F939F9363
:100DC000AF93BF93EF93FF9387E492E00E941E01DD
:100DD000FF91EF91BF91AF919F918F917F916F9113
:100DE0005F914F913F912F910F900FBE0F901F90E9
:100DF00018951F920F920FB60F9211242F938F9375
:100E00009F93EF93FF93E0915702F09158028081F6
:100E1000E0915D02F0915E0282FD1BC090818091A5
:100E200060028F5F8F7320916102821741F0E09121
:100E30006002F0E0E95BFD4F958F80936002FF91C7
:100E4000EF919F918F912F910F900FBE0F901F9058
:100E500018958081F4CF1F920F920FB60F92112434
:100E60002F933F938F939F93AF93BF938091E30111
:100E70009091E401A091E501B091E6013091E20189
:100E800023E0230F2D3758F50196A11DB11D2093A6
:100E9000E2018093E3019093E401A093E501B09314
:100EA000E6018091E7019091E801A091E901B091FC
:100EB000EA010196A11DB11D8093E7019093E8011D
:100EC000A093E901B093EA01BF91AF919F918F91F7
:100ED0003F912F910F900FBE0F901F90189526E80D
:100EE000230F0296A11DB11DD2CF1F920F920FB6F4
:100EF0000F9211242F933F934F935F936F937F93A0
:100F00008F939F93AF93BF93EF93FF938091B9001B
:100F1000887F803609F44AC0F0F5883209F4A7C00A
:100F200018F5803109F49BC0B8F4882309F4F9C09E
:100F3000883009F494C0FF91EF91BF91AF919F91D8
:100F40008F917F916F915F914F913F912F910F9072
:100F50000FBE0F901F901895883109F488C0803219
:100F600051F780931B0214C0803409F49DC040F4F3
:100F70008033B9F38833F9F680931B0285ECB0C057
:100F8000803509F485C0883509F496C0883499F60F
:100F90000E949B06D0CF883909F48CC038F5883779
:100FA00029F050F4883611F0803729F683E08093D9
:100FB0001D021092C10157C0883809F47BC08039E6
:100FC00019F0803809F0B7CF8091C101803208F064
:100FD00071C0E091C10181E08E0F8093C1018091C9
:100FE000BB00F0E0EF55FE4F80833DC0803B39F001
:100FF000E0F4803A09F479C0883A09F09CCF84E0A3
:1010000080931D021092A00110929F01E091ED01CA
:10101000F091EE01099580919F0181110FC081E04F
:1010200080939F0110927F0109C0803C09F4A6CFF4
:10103000883C09F4A3CF883B09F07DCFE091A00163
:1010400081E08E0F8093A001F0E0E158FE4F808197
:101050008093BB009091A00180919F0129C0809155
:10106000F8018093BB0085EC8093BC0064CF909125
:101070001A0280911902981758F5E0911A0281E03E
:101080008E0F80931A02F0E0E750FE4F8081E9CF87
:10109000E0911A0281E08E0F80931A028091BB00CA
:1010A000F0E0E750FE4F808390911A028091190280
:1010B0009817C8F285E8D8CFE0911A0281E08E0F28
:1010C00080931A028091BB00F0E0E750FE4F8083CE
:1010D00080911C0281115CCF81E08093F70184EA4A
:1010E0008093BC0010921D0226CF85EC8093BC003B
:1010F00010921D028091C101803230F4E091C10153
:10110000F0E0EF55FE4F10826091C10170E0E09178
:10111000EB01F091EC0181EA91E009951092C10197
:101120000ACF10921B0234CFE7E4F2E0138212825E
:1011300088EE93E0A0E0B0E084839583A683B78334
:1011400024E031E03183208325EC30E035872487AB
:1011500024EC30E03787268720EC30E0318B208B81
:1011600021EC30E0338B228B22EC30E0358B248B6A
:1011700026EC30E0378B268B118E128E138E148E58
:10118000E4EEF2E01382128284839583A683B78310
:1011900086E191E091838083E8EFF2E088E6808346
:1011A0001282118288EF9AE2A0E0B0E0818B928BEC
:1011B000A38BB48B8EE18093F0020895CF93DF93DD
:1011C00000D000D0CDB7DEB7789484B5826084BDFE
:1011D00084B5816084BD85B5826085BD85B581603B
:1011E00085BD80916E00816080936E0010928100B9
:1011F0008091810082608093810080918100816074
:101200008093810080918000816080938000809134
:10121000B10084608093B1008091B00081608093C0
:10122000B00080917A00846080937A0080917A0087
:10123000826080937A0080917A00816080937A0046
:1012400080917A00806880937A001092C100109299
:10125000F0011092EF0110922402109246020E94B7
:1012600045028EE990E09093EE018093ED018FE9C5
:1012700090E09093EC018093EB010091F9021091C2
:10128000FA0220E045E06AE68091F8020E945806E2
:101290000091F9021091FA0221E041E067E38091A8
:1012A000F8020E9458060091F9021091FA0220E01B
:1012B00046E06BE68091F8020E945806E0915702E2
:1012C000F091580282E08083E0915302F091540241
:1012D0001082E0915502F091560283E380831092D0
:1012E0005F02E0915B02F0915C0286E08083E09116
:1012F0005902F0915A02808180618083E091590205
:10130000F0915A02808188608083E0915902F091C7
:101310005A02808180688083E0915902F0915A02DC
:1013200080818F7D80838091F00290E79C8330E004
:1013300020E0AE014C5F5F4F60E00E94740380913B
:10134000F00290E29B8330E020E0AE014D5F5F4F02
:1013500061E00E9474038091F00211E01A8330E092
:1013600020E0AE014E5F5F4F62E00E947403109375
:10137000F702F12CE12C08EE13E021EF32E043E01C
:101380006AE08091F0020E94A904833009F091C1C3
:101390008091F102883409F08CC18091F20284338B
:1013A00009F087C18091F302833309F082C18FE392
:1013B00091E00E942C048AE791E00E942C04EFED5A
:1013C000F0E02491EBECF0E08491882399F090E038
:1013D000880F991FFC01EC54FF4FA591B491FC01BB
:1013E000E655FF4F859194918FB7F894EC91E22BDD
:1013F000EC938FBF80E0282E80E0382EF12CE12C7A
:1014000008EE13E021EF32E046E063E08091F00265
:101410000E94A9049091F702913059F48091F00252
:10142000998330E020E0AE014F5F5F4F62E00E94A1
:1014300074038091F1029091F202982789279827EE
:101440009093F6018093F5018091F5029091F60258
:101450009827892798279093F4018093F30180912E
:10146000F3029091F4029827892798279093F2012C
:101470008093F1018EE591E00E942C046091F501CA
:101480007091F601072E000C880B990B0E947D04C9
:1014900082E691E00E942C046091F3017091F401C6
:1014A000072E000C880B990B0E947D0482E691E0C8
:1014B0000E942C046091F1017091F201072E000C42
:1014C000880B990B0E947D0482E691E00E942C0417
:1014D0006091F5017091F601072E000C880B990BB5
:1014E0000E94050D6B017C016091F3017091F40184
:1014F000072E000C880B990B0E94050DA701960181
:101500000E94FE0B6B017C0120E030E0A9010E94EB
:101510005D0C87FF0AC02BED3FE049EC50E4C701AA
:10152000B6010E947F0B6B017C0184E691E00E9472
:101530002C0420E030E044E353E4C701B6010E94EC
:10154000E90D2BED3FE049E450E40E94620C6B0191
:101550007C012B013C01AC019B010E945A0E8823A7
:10156000A1F08EE691E00E942C048AE791E00E94AF
:101570002C042114310409F441CF0E940A0188236C
:1015800009F43CCF0E94000039CF46015701E8948E
:10159000B7F82FEF3FEF4FE75FE7C501B4010E94B7
:1015A0005A0E81110DC02FEF3FEF4FE75FE7C501E6
:1015B000B4010E945D0C18161CF482E791E0D3CFB1
:1015C0002FEF3FEF4FE75FE4C701B6010E94DC0D4C
:1015D00018161CF486E791E0C6CF2FEF3FEF4FE7D8
:1015E0005FECC701B6010E945D0C87FDF3CF20E0E0
:1015F00030E0A901C701B6010E945D0C87FF0BC056
:101600006DE287E492E00E9440012601370177FAFB
:10161000709477F870942AE037ED43EA5BE3C301F6
:10162000B2010E947F0B2B013C010E94D40C6B0184
:101630007C010E94030D9B01AC01C301B2010E9419
:101640007E0B2B013C014AE0C701B6010E94390420
:101650006EE287E492E00E94400120E030E040E248
:1016600051E4C301B2010E94E90D2B013C010E942B
:10167000D40C6B01F12CE12C4AE0C701B6010E94A9
:101680003904C701B6010E94030D9B01AC01C301DF
:10169000B2010E947E0B20E030E040E251E40E9463
:1016A000E90D0E94D40C90E080E04AE00E943904E9
:1016B0005CCF84E291E07DCEA1E21A2EAA1BBB1B77
:1016C000FD010DC0AA1FBB1FEE1FFF1FA217B3070E
:1016D000E407F50720F0A21BB30BE40BF50B661F24
:1016E000771F881F991F1A9469F7609570958095E8
:1016F00090959B01AC01BD01CF0108955058BB27C7
:10170000AA270E94960B0C94A20D0E94940D38F00B
:101710000E949B0D20F039F49F3F19F426F40C949D
:101720006A0D0EF4E095E7FB0C94640DE92F0E941E
:10173000B30D58F3BA17620773078407950720F0B3
:1017400079F4A6F50C94D50D0EF4E0950B2EBA2F76
:10175000A02D0B01B90190010C01CA01A0011124B7
:10176000FF27591B99F0593F50F4503E68F11A1663
:10177000F040A22F232F342F4427585FF3CF4695F4
:1017800037952795A795F0405395C9F77EF41F1616
:10179000BA0B620B730B840BBAF09150A1F0FF0FE0
:1017A000BB1F661F771F881FC2F70EC0BA0F621FCC
:1017B000731F841F48F4879577956795B795F795BC
:1017C0009E3F08F0B0CF9395880F08F09927EE0F51
:1017D0009795879508950E94940D60F080E891E0B8
:1017E00009F49EEF0E949B0D28F040E851E071F44F
:1017F0005EEF0CC00C946A0D0C94D50DE92FE078C7
:101800000E94B30D40F3092E052AB1F326173707BE
:101810004807590738F00E2E07F8E02569F0E02553
:10182000E0640AC0EF6307F8009407FADB01B9012E
:101830009D01DC01CA01AD01EF930E94790C0E9469
:10184000A20D0E942E0C5F91552339F02BED3FE045
:1018500049E450FD49EC0C947F0B0895DF93DD279C
:10186000B92FBF7740E85FE31616170648075B07F6
:1018700018F4D92F0E94E10D9F938F937F936F935C
:101880000E94560EE8E6F0E00E946D0D0E94A20D47
:101890002F913F914F915F910E94FC0DDD2351F0FC
:1018A0009058A2EA2AED3FE049EC5FE3D0785D274B
:1018B0000E94960BDF910C94A20D0E94400D08F43B
:1018C00081E008950E94760C0C94A20D0E949B0D5D
:1018D00058F00E94940D40F029F45F3F29F00C94D9
:1018E000640D51110C94D60D0C946A0D0E94B30D29
:1018F00068F39923B1F3552391F3951B550BBB273F
:10190000AA2762177307840738F09F5F5F4F220F83
:10191000331F441FAA1FA9F335D00E2E3AF0E0E87A
:1019200032D091505040E695001CCAF72BD0FE2FC4
:1019300029D0660F771F881FBB1F26173707480758
:10194000AB07B0E809F0BB0B802DBF01FF27935810
:101950005F4F3AF09E3F510578F00C94640D0C9463
:10196000D60D5F3FE4F3983ED4F38695779567955F
:10197000B795F7959F5FC9F7880F911D9695879545
:1019800097F90895E1E0660F771F881FBB1F621764
:1019900073078407BA0720F0621B730B840BBA0B22
:1019A000EE1F88F7E09508950E94BB0D88F09F57C1
:1019B00098F0B92F9927B751B0F0E1F0660F771F73
:1019C000881F991F1AF0BA95C9F714C0B13091F069
:1019D0000E94D50DB1E008950C94D50D672F782F96
:1019E0008827B85F39F0B93FCCF38695779567952E
:1019F000B395D9F73EF490958095709561957F4F9A
:101A00008F4F9F4F0895E89409C097FB3EF490953F
:101A10008095709561957F4F8F4F9F4F9923A9F0C7
:101A2000F92F96E9BB279395F69587957795679556
:101A3000B795F111F8CFFAF4BB0F11F460FF1BC09A
:101A40006F5F7F4F8F4F9F4F16C0882311F096E92D
:101A500011C0772321F09EE8872F762F05C06623DB
:101A600071F096E8862F70E060E02AF09A95660F94
:101A7000771F881FDAF7880F9695879597F908954D
:101A8000990F0008550FAA0BE0E8FEEF161617068F
:101A9000E807F907C0F012161306E407F50798F0F7
:101AA000621B730B840B950B39F40A2661F0232B10
:101AB000242B252B21F408950A2609F4A140A6958C
:101AC0008FEF811D811D089597F99F6780E870E071
:101AD00060E008959FEF80EC0895DF93CF931F930C
:101AE0000F93FF92EF92DF927B018C01689406C006
:101AF000DA2EEF010E94FC0DFE01E894A5912591DC
:101B0000359145915591A6F3EF010E94960BFE0188
:101B10009701A801DA9469F7DF90EF90FF900F9199
:101B20001F91CF91DF91089500240A94161617068D
:101B300018060906089500240A94121613061406BE
:101B400005060895092E0394000C11F4882352F021
:101B5000BB0F40F4BF2B11F460FF04C06F5F7F4FD9
:101B60008F4F9F4F089557FD9058440F551F59F0C0
:101B70005F3F71F04795880F97FB991F61F09F3F7A
:101B800079F087950895121613061406551FF2CFA3
:101B90004695F1DF08C0161617061806991FF1CFF3
:101BA00086957105610508940895E894BB2766271A
:101BB0007727CB0197F908950E94400D08F48FEF25
:101BC00008959B01AC0160E070E080E89FE30C9415
:101BD000620C0E94FC0D0C94A20D0E94940D38F032
:101BE0000E949B0D20F0952311F00C94640D0C9431
:101BF0006A0D11240C94D60D0E94B30D70F3959FBD
:101C0000C1F3950F50E0551F629FF001729FBB27F3
:101C1000F00DB11D639FAA27F00DB11DAA1F649F8F
:101C20006627B00DA11D661F829F2227B00DA11D42
:101C3000621F739FB00DA11D621F839FA00D611DC8
:101C4000221F749F3327A00D611D231F849F600DE9
:101C5000211D822F762F6A2F11249F5750409AF012
:101C6000F1F088234AF0EE0FFF1FBB1F661F771F9E
:101C7000881F91505040A9F79E3F510580F00C9469
:101C8000640D0C94D60D5F3FE4F3983ED4F3869533
:101C900077956795B795F795E7959F5FC1F7FE2B09
:101CA000880F911D9695879597F908959B01AC0132
:101CB0000C94E90D0E94400D880B990B0895EE0FCE
:0E1CC000FF1F0590F491E02D0994F894FFCFDA
:101CCE00000000004001A000CD008D01FE00DC00F0
:101CDE00F00000000000FA03CD032904A303C6039D
:101CEE00B303A403484D43353838334C20636F6E2D
:101CFE006E656374696F6E206661696C6564004819
:101D0E004D43353838334C20636F6E6E656374699E
:101D1E006F6E207375636365737366756C006D61AA
:101D2E00673A090068656164696E673A09006E6119
:0E1D3E006E00696E66006F7666000D0A00008A
:00000001FF
