:100000000C9458000C9480000C9480000C94800098
:100010000C9480000C9480000C9480000C94800060
:100020000C9480000C9480000C9480000C94800050
:100030000C9480000C9480000C9480000C94800040
:100040000C949E050C9480000C946C050C94460551
:100050000C9480000C9480000C9480000C94800020
:100060000C94E8050C948000000000002500280096
:100070002B00040404040404040402020202020229
:10008000030303030303010204081020408001025C
:1000900004081020010204081020000000080002DB
:1000A0000100000304070000000000000000070733
:1000B00011241FBECFEFD8E0DEBFCDBF11E0A0E01E
:1000C000B1E0ECECF7E102C005900D92A834B10765
:1000D000D9F722E0A8E4B1E001C01D92A03CB2072C
:1000E000E1F710E0C8E5D0E004C02197FE010E94CE
:1000F000DE0BC735D107C9F70E9440070C94E40B0B
:100100000C94000008950895AF92BF92CF92DF92B1
:10011000EF92FF920F931F93CF93DF936C017B01BC
:100120008B01040F151FEB015E01AE18BF08C0174D
:10013000D10759F06991D601ED91FC910190F081C0
:10014000E02DC6010995892B79F7C501DF91CF9183
:100150001F910F91FF90EF90DF90CF90BF90AF90E5
:100160000895FC01538D448D252F30E0842F90E0BD
:10017000821B930B541710F0CF96089501970895A2
:10018000FC01918D828D981761F0A28DAE0FBF2F6B
:10019000B11D5D968C91928D9F5F9F73928F90E0C1
:1001A00008958FEF9FEF0895FC01918D828D981730
:1001B00031F0828DE80FF11D858D90E008958FEF6D
:1001C0009FEF0895FC01918D228D892F90E0805C36
:1001D0009F4F821B91098F739927089587E192E0C1
:1001E0000E94E20021E0892B09F420E0822F08958B
:1001F00080E090E0892B29F00E94EE0081110C94A0
:1002000000000895FC01A48DA80FB92FB11DA35AB9
:10021000BF4F2C91848D90E001968F739927848F26
:10022000A689B7892C93A089B1898C918370806449
:100230008C93938D848D981306C00288F389E02DEA
:1002400080818F7D80830895EF92FF920F931F939B
:10025000CF93DF93EC0181E0888F9B8D8C8D981379
:100260001AC0E889F989808185FF15C09FB7F89485
:10027000EE89FF896083E889F989808183708064D1
:1002800080839FBF81E090E0DF91CF911F910F911C
:10029000FF90EF900895F62E0B8D10E00F5F1F4F2B
:1002A0000F731127E02E8C8D8E110CC00FB607FC3A
:1002B000FACFE889F989808185FFF5CFCE010E94C8
:1002C0000201F1CFEB8DEC0FFD2FF11DE35AFF4F33
:1002D000F0829FB7F8940B8FEA89FB898081806256
:1002E000CFCFCF93DF93EC01888D8823B9F0AA8913
:1002F000BB89E889F9898C9185FD03C0808186FDE1
:100300000DC00FB607FCF7CF8C9185FFF2CF80812F
:1003100085FFEDCFCE010E940201E9CFDF91CF91A1
:10032000089590E0FC01E656FF4F2491FC01EA5746
:10033000FF4F3491FC01EE58FF4FE491EE23C9F0DA
:10034000222339F0233001F1A8F4213019F12230B1
:1003500029F1F0E0EE0FFF1FE859FF4FA591B4918E
:100360008FB7F894EC91611126C030953E233C93F1
:100370008FBF08952730A9F02830C9F0243049F7FD
:10038000809180008F7D03C0809180008F77809363
:100390008000DFCF84B58F7784BDDBCF84B58F7DC0
:1003A000FBCF8091B0008F778093B000D2CF809147
:1003B000B0008F7DF9CF3E2BDACF3FB7F894809114
:1003C000910190919201A0919301B091940126B571
:1003D000A89B05C02F3F19F00196A11DB11D3FBF7D
:1003E000BA2FA92F982F8827BC01CD01620F711D4C
:1003F000811D911D42E0660F771F881F991F4A9546
:10040000D1F7089520916901260F3327331F213238
:100410003105ECF42091ED01FC0190E080E0243006
:1004200069F082E00895A09169012191AC01475BD8
:100430005E4FA40FB52FB11D2C930196861798F32C
:1004400080916901680F6093690180E0089581E0FF
:1004500008951092ED0181E08093EC011092C701A4
:1004600061E082E10E94910161E083E10E949101DB
:10047000E9EBF0E080818E7F808380818D7F8083B7
:1004800088E48093B80085E48093BC000895CF93FE
:10049000DF9391E0909348018823B9F0C091B800B0
:1004A000D091BA008091BC008A7B8093BC0060E050
:1004B00082E10E94910160E083E10E9491010E942B
:1004C0002902D093BA00C093B800DF91CF9108956C
:1004D0008F929F92AF92BF92CF92DF92EF92FF9254
:1004E0000F931F93CF93DF93D0911602D13208F070
:1004F000D7C0182FC09115020E94DD016B017C014D
:100500008091ED0181116BC082E08093ED01109329
:10051000EC018FEF8093EB011092EA01D093E90197
:10052000A5EFB1E0E9ECF1E080E0D81391C01092C2
:10053000C8018091C801CC0FC82BC093C80180911D
:10054000C701813009F088C01092C7010E94DD0107
:100550006B017C018091C8018093BB008091EF0109
:100560009091F001A091F101B091F201892B8A2BB9
:100570008B2BA1F00E94DD010091EF011091F001A1
:100580002091F1013091F2016C197D098E099F09CA
:10059000061717072807390708F442C08091BC00E6
:1005A00083FDD8CF85EC8093BC000E94DD016B01F8
:1005B0007C018091ED01823009F450C08091EB0103
:1005C0008F3F09F46FC08091EB01803209F46CC059
:1005D0008091EB01803309F469C084E026C08091EA
:1005E000EF019091F001A091F101B091F201892BFE
:1005F0008A2B8B2B09F484CF0E94DD018090EF01C0
:100600009090F001A090F101B090F2016C197D0979
:100610008E099F0986169706A806B90608F070CFBE
:100620008091EE010E94470285E01092F401109241
:1006300016021092F301DF91CF911F910F91FF905D
:10064000EF90DF90CF90BF90AF909F908F900895E4
:100650009D9191938F5F69CF85EEA5CF8091EF013A
:100660009091F001A091F101B091F201892B8A2BB8
:100670008B2B09F49ECF0E94DD010091EF011091B8
:10068000F0012091F1013091F2016C197D098E0980
:100690009F09061717072807390708F08ACFC0CF28
:1006A00081E0C3CF80E0C1CF82E0BFCF83E0BDCF88
:1006B0000895E0919A0180919901E81730F4F0E0F3
:1006C000E556FE4F808190E008958FEF9FEF0895EB
:1006D00090919A01809199012FEF3FEF981748F47C
:1006E000E92FF0E0E556FE4F208130E09F5F9093C8
:1006F0009A01C90108958091990190919A01891BED
:10070000990B0895CF92DF92EF92FF920F931F9370
:10071000CF93DF937C01CB018A012091F301222347
:1007200089F0EB016B01C40ED51ECC15DD0569F017
:100730006991D701ED91FC910190F081E02DC70105
:100740000995F3CF642F0E940202C801DF91CF9177
:100750001F910F91FF90EF90DF90CF900895CF936E
:10076000DF931F92CDB7DEB769832091F301222377
:10077000F9F020911602203258F021E030E0FC011F
:100780003383228390E080E00F90DF91CF91089532
:100790008091F401E82FF0E0EB50FE4F99819083B7
:1007A0008F5F8093F4018093160281E090E0ECCF9C
:1007B00061E0CE0101960E940202F7CF90E080E056
:1007C0000895FC0101900020E9F73197AF01481B23
:1007D000590BBC0187E192E00C9484008F929F92A8
:1007E000AF92BF920F931F93CF93DF93CDB7DEB736
:1007F000A1970FB6F894DEBF0FBECDBF19A242304D
:1008000008F44AE08E010F5D1F4F842E912CB12C0D
:10081000A12CA50194010E94BC0BE62FB901CA01CD
:10082000EA30F4F4E05DD801EE938D01232B242B04
:10083000252B79F790E080E0109719F0CD010E9408
:10084000E103A1960FB6F894DEBF0FBECDBFDF91D6
:10085000CF911F910F91BF90AF909F908F9008956F
:10086000E95CE1CF4F925F926F927F928F929F925D
:10087000AF92BF92CF92DF92EF92FF920F931F93AE
:10088000CF936B017C01742EAC019B010E94B70BCE
:10089000882399F084E291E0CF911F910F91FF900E
:1008A000EF90DF90CF90BF90AF909F908F907F9010
:1008B0006F905F904F900C94E10346015701E894CC
:1008C000B7F82FEF3FEF4FE75FE7C501B4010E9494
:1008D000B70B81110DC02FEF3FEF4FE75FE7C50169
:1008E000B4010E94ED0918161CF488E291E0D4CFFF
:1008F0002FEF3FEF4FE75FE4C701B6010E94450BC2
:1009000018161CF48CE291E0C7CF2FEF3FEF4FE7B2
:100910005FECC701B6010E94ED0987FDF3CF20E02F
:1009200030E0A901C701B6010E94ED0910E000E026
:1009300087FF0AC06DE287E192E00E9424018C01EA
:10094000F7FAF094F7F8F094C0E060E070E080E02F
:100950009FE37C1641F020E030E040E251E40E9449
:10096000F209CF5FF6CFA70196010E9481092B0102
:100970003C010E94640A4B015C014AE00E94EE03C4
:100980007C01E00EF11ECC23C1F1C501B4010E942F
:10099000930A9B01AC01C301B2010E9480094B0183
:1009A0005C016EE287E192E00E942401E80EF91EEC
:1009B000C15018F120E030E040E251E4C501B4013B
:1009C0000E944A0B2B013C010E94640A4B01B12C8E
:1009D000A12C4AE0C501B4010E94EE03E80EF91E05
:1009E000C501B4010E94930A9B01AC01C301B2018D
:1009F0000E9480094B015C01DBCFC701CF911F91A1
:100A00000F91FF90EF90DF90CF90BF90AF909F90AD
:100A10008F907F906F905F904F90089585ED8093B9
:100A2000BC008091EF019091F001A091F101B09193
:100A3000F2010796A11DB11D23E0B695A7959795E4
:100A400087952A95D1F72091BC0024FD03C0109210
:100A5000ED0108954091EF015091F0016091F10195
:100A60007091F201452B462B472B69F30097A105A6
:100A7000B10541F025E32A95F1F700000197A1099E
:100A8000B109E1CF8091EE010C9447021F920F92C1
:100A90000FB60F9211242F933F934F935F936F9351
:100AA0007F938F939F93AF93BF93EF93FF9387E1D0
:100AB00092E00E940201FF91EF91BF91AF919F914F
:100AC0008F917F916F915F914F913F912F910F90F7
:100AD0000FBE0F901F9018951F920F920FB60F9296
:100AE00011242F938F939F93EF93FF93E09127020D
:100AF000F09128028081E0912D02F0912E0282FD7A
:100B00001BC09081809130028F5F8F7320913102E2
:100B1000821741F0E0913002F0E0E95EFD4F958FE1
:100B200080933002FF91EF919F918F912F910F90C1
:100B30000FBE0F901F9018958081F4CF1F920F92D7
:100B40000FB60F9211242F933F938F939F93AF93E0
:100B5000BF9380918D0190918E01A0918F01B091F2
:100B6000900130918C0123E0230F2D3758F5019629
:100B7000A11DB11D20938C0180938D0190938E0156
:100B8000A0938F01B0939001809191019091920177
:100B9000A0919301B09194010196A11DB11D809384
:100BA000910190939201A0939301B0939401BF910E
:100BB000AF919F918F913F912F910F900FBE0F900A
:100BC0001F90189526E8230F0296A11DB11DD2CFC4
:100BD0001F920F920FB60F9211242F933F934F93B2
:100BE0005F936F937F938F939F93AF93BF93EF9395
:100BF000FF938091B900887F803609F44AC0F0F5F0
:100C0000883209F4A7C018F5803109F49BC0B8F404
:100C1000882309F4F9C0883009F494C0FF91EF915A
:100C2000BF91AF919F918F917F916F915F914F9104
:100C30003F912F910F900FBE0F901F901895883104
:100C400009F488C0803251F78093EB0114C08034DE
:100C500009F49DC040F48033B9F38833F9F68093EA
:100C6000EB0185ECB0C0803509F485C0883509F406
:100C700096C0883499F60E940E05D0CF883909F4C1
:100C80008CC038F5883729F050F4883611F0803759
:100C900029F683E08093ED0110928B0157C08838CC
:100CA00009F47BC0803919F0803809F0B7CF809102
:100CB0008B01803208F071C0E0918B0181E08E0FD2
:100CC00080938B018091BB00F0E0E559FE4F80835B
:100CD0003DC0803B39F0E0F4803A09F479C0883AAD
:100CE00009F09CCF84E08093ED0110926A0110928C
:100CF0006901E0919701F09198010995809169014E
:100D000081110FC081E0809369011092490109C0EF
:100D1000803C09F4A6CF883C09F4A3CF883B09F0B6
:100D20007DCFE0916A0181E08E0F80936A01F0E04F
:100D3000E75BFE4F80818093BB0090916A018091B8
:100D4000690129C08091C8018093BB0085EC809324
:100D5000BC0064CF9091EA018091E901981758F5A1
:100D6000E091EA0181E08E0F8093EA01F0E0E75321
:100D7000FE4F8081E9CFE091EA0181E08E0F809300
:100D8000EA018091BB00F0E0E753FE4F8083909131
:100D9000EA018091E9019817C8F285E8D8CFE0917F
:100DA000EA0181E08E0F8093EA018091BB00F0E0C0
:100DB000E753FE4F80838091EC0181115CCF81E08D
:100DC0008093C70184EA8093BC001092ED0126CF86
:100DD00085EC8093BC001092ED0180918B018032F4
:100DE00030F4E0918B01F0E0E559FE4F1082609104
:100DF0008B0170E0E0919501F09196018BE691E016
:100E0000099510928B010ACF1092EB0134CFE7E1E4
:100E1000F2E01382128288EE93E0A0E0B0E08483D7
:100E20009583A683B78324E031E03183208325ECCA
:100E300030E03587248724EC30E03787268720ECA4
:100E400030E0318B208B21EC30E0338B228B22EC95
:100E500030E0358B248B26EC30E0378B268B118EDF
:100E6000128E138E148EE4EBF2E0138212828483CE
:100E70009583A683B78386E191E09183808308956B
:100E8000789484B5826084BD84B5816084BD85B565
:100E9000826085BD85B5816085BD80916E00816071
:100EA00080936E0010928100809181008260809317
:100EB0008100809181008160809381008091800019
:100EC0008160809380008091B10084608093B10044
:100ED0008091B00081608093B00080917A0084603E
:100EE00080937A0080917A00826080937A0080916A
:100EF0007A00816080937A0080917A008068809384
:100F00007A001092C100E0912702F091280282E05D
:100F10008083E0912302F09124021082E091250267
:100F2000F09126028FEC808310922F02E0912B0229
:100F3000F0912C0286E08083E0912902F0912A0250
:100F4000808180618083E0912902F0912A02808172
:100F500088608083E0912902F0912A028081806874
:100F60008083E0912902F0912A0280818F7D808325
:100F700010929A01109299011092F40110921602A7
:100F80000E94290282E890E0909398018093970153
:100F900083E890E0909396018093950181E080939F
:100FA000F30183E5809315026DE284EB92E00E94E9
:100FB000AF0368E084EB92E00E94AF0381E00E94FF
:100FC00068020E94DD012B013C013AE0832E912C46
:100FD000A12CB12C0E94DD016419750986099709BD
:100FE000683E734081059105A8F321E0821A9108BB
:100FF000A108B10888EE480E83E0581E611C711CE0
:1010000081149104A104B10429F79924939485ECE7
:10101000282E90E0A92E90E0B92E33243A9425E0B2
:10102000822E9092F30183E5809315021092F401D1
:101030001092160262E384EB92E00E94AF0380E01C
:101040000E9468020E94DD012B013C018091ED01AC
:10105000811161C09092ED019092EC013092EB0110
:101060001092EA018092E9019092C8018091C80132
:10107000866A8093C8018091C701813009F018C148
:101080001092C7010E94DD012B013C018091C80133
:101090008093BB008091EF019091F001A091F1014C
:1010A000B091F201892B8A2B8B2BA1F00E94DD01DC
:1010B0002091EF013091F0014091F1015091F20146
:1010C00064197509860997092617370748075907CC
:1010D00008F442C08091BC0083FDD8CF2092BC00B0
:1010E0000E94DD012B013C018091ED01813009F46A
:1010F000E3C08091EA01863008F000C18091EA01E6
:10110000A9ECB1E0EBE9F1E090E0981751F12D91F5
:1011100021939F5FFACF8091EF019091F001A09110
:10112000F101B091F201892B8A2B8B2B09F48ECF20
:101130000E94DD012091EF013091F0014091F10119
:101140005091F20164197509860997092617370726
:101150004807590708F07ACF8091EE010E944702B4
:1011600080E010929A018093990184EB92E00E94B2
:101170006803EC0184EB92E00E946803182F00E002
:10118000B8016C2B7D2B072E000C880B990B0E944D
:10119000950A20E030E040E85BE30E944A0B609350
:1011A000C3017093C4018093C5019093C60184EB81
:1011B00092E00E946803EC0184EB92E00E946803D5
:1011C000F82EE12CB7016C2B7D2B072E000C880B21
:1011D000990B0E94950A20E030E040E85BE30E9412
:1011E0004A0B6093BF017093C0018093C10190933B
:1011F000C20184EB92E00E946803EC0184EB92E070
:101200000E946803D82EC12CB6016C2B7D2B072EB3
:10121000000C880B990B0E94950A20E030E040E812
:101220005BE30E944A0B6093BB017093BC01809307
:10123000BD019093BE0180E391E00E94E1036091C3
:10124000C3017091C4018091C5019091C60142E033
:101250000E94320485E391E00E94E1036091BF01A6
:101260007091C0018091C1019091C20142E00E9441
:1012700032048DE391E00E94E1036091BB01709123
:10128000BC018091BD019091BE0142E00E943204F8
:1012900085E491E00E94E103A114B10409F4C1CEF8
:1012A0000E94EE00882309F4BCCE0E940000B9CE53
:1012B00025EE2093BC0014CF8091EF019091F001B6
:1012C000A091F101B091F201892B8A2B8B2B09F4AB
:1012D0000BCF0E94DD012091EF013091F001409190
:1012E000F1015091F20164197509860997092617D1
:1012F00037074807590708F0F7CE2ECF86E000CF12
:101300005058BB27AA270E9498090C940B0B0E94E7
:10131000FD0A38F00E94040B20F039F49F3F19F4C5
:1013200026F40C94FA0A0EF4E095E7FB0C94F40A08
:10133000E92F0E941C0B58F3BA1762077307840742
:10134000950720F079F4A6F50C943E0B0EF4E09589
:101350000B2EBA2FA02D0B01B90190010C01CA016F
:10136000A0011124FF27591B99F0593F50F4503E1A
:1013700068F11A16F040A22F232F342F4427585F0C
:10138000F3CF469537952795A795F0405395C9F724
:101390007EF41F16BA0B620B730B840BBAF09150DC
:1013A000A1F0FF0FBB1F661F771F881FC2F70EC07B
:1013B000BA0F621F731F841F48F48795779567954E
:1013C000B795F7959E3F08F0B0CF9395880F08F03A
:1013D0009927EE0F9795879508950E94D00A08F4F3
:1013E00081E008950E94060A0C940B0B0E94040BE6
:1013F00058F00E94FD0A40F029F45F3F29F00C9458
:10140000F40A51110C943F0B0C94FA0A0E941C0B25
:1014100068F39923B1F3552391F3951B550BBB2723
:10142000AA2762177307840738F09F5F5F4F220F68
:10143000331F441FAA1FA9F335D00E2E3AF0E0E85F
:1014400032D091505040E695001CCAF72BD0FE2FA9
:1014500029D0660F771F881FBB1F2617370748073D
:10146000AB07B0E809F0BB0B802DBF01FF279358F5
:101470005F4F3AF09E3F510578F00C94F40A0C94BB
:101480003F0B5F3FE4F3983ED4F3869577956795DD
:10149000B795F7959F5FC9F7880F911D969587952A
:1014A00097F90895E1E0660F771F881FBB1F621749
:1014B00073078407BA0720F0621B730B840BBA0B07
:1014C000EE1F88F7E09508950E94240B88F09F573F
:1014D00098F0B92F9927B751B0F0E1F0660F771F58
:1014E000881F991F1AF0BA95C9F714C0B13091F04E
:1014F0000E943E0BB1E008950C943E0B672F782FAD
:101500008827B85F39F0B93FCCF386957795679512
:10151000B395D9F73EF490958095709561957F4F7E
:101520008F4F9F4F0895E89409C097FB3EF4909524
:101530008095709561957F4F8F4F9F4F9923A9F0AC
:10154000F92F96E9BB279395F6958795779567953B
:10155000B795F111F8CFFAF4BB0F11F460FF1BC07F
:101560006F5F7F4F8F4F9F4F16C0882311F096E912
:1015700011C0772321F09EE8872F762F05C06623C0
:1015800071F096E8862F70E060E02AF09A95660F79
:10159000771F881FDAF7880F9695879597F9089532
:1015A000990F0008550FAA0BE0E8FEEF1616170674
:1015B000E807F907C0F012161306E407F50798F0DC
:1015C000621B730B840B950B39F40A2661F0232BF5
:1015D000242B252B21F408950A2609F4A140A69571
:1015E0008FEF811D811D089597F99F6780E870E056
:1015F00060E008959FEF80EC089500240A94161689
:10160000170618060906089500240A9412161306F0
:10161000140605060895092E0394000C11F488237E
:1016200052F0BB0F40F4BF2B11F460FF04C06F5F9A
:101630007F4F8F4F9F4F089557FD9058440F551F70
:1016400059F05F3F71F04795880F97FB991F61F044
:101650009F3F79F087950895121613061406551FBB
:10166000F2CF4695F1DF08C0161617061806991F27
:10167000F1CF86957105610508940895E894BB271C
:1016800066277727CB0197F908950E94D00A08F4BE
:101690008FEF08950E945D0B0C940B0B0E94FD0AC6
:1016A00038F00E94040B20F0952311F00C94F40AFA
:1016B0000C94FA0A11240C943F0B0E941C0B70F33B
:1016C000959FC1F3950F50E0551F629FF001729FE7
:1016D000BB27F00DB11D639FAA27F00DB11DAA1FF6
:1016E000649F6627B00DA11D661F829F2227B00D43
:1016F000A11D621F739FB00DA11D621F839FA00DCE
:10170000611D221F749F3327A00D611D231F849F1D
:10171000600D211D822F762F6A2F11249F57504074
:101720009AF0F1F088234AF0EE0FFF1FBB1F661FEF
:10173000771F881F91505040A9F79E3F510580F0B8
:101740000C94F40A0C943F0B5F3FE4F3983ED4F3FF
:10175000869577956795B795F795E7959F5FC1F75C
:10176000FE2B880F911D9695879597F908950E94F5
:10177000D00A880B990B0895A1E21A2EAA1BBB1B55
:10178000FD010DC0AA1FBB1FEE1FFF1FA217B3074D
:10179000E407F50720F0A21BB30BE40BF50B661F63
:1017A000771F881F991F1A9469F760957095809527
:1017B00090959B01AC01BD01CF010895EE0FFF1F75
:0C17C0000590F491E02D0994F894FFCFFF
:1017CC000000000024018400B1007101E200C0009F
:1017DC00D40000000000AF038203DE0358037B0338
:1017EC00680359036E616E00696E66006F76660061
:1017FC0058613D200020202059613D2000202020F0
:08180C005A613D20000D0A00A5
:00000001FF
