:100000000C945D000C9485000C9485000C94850084
:100010000C9485000C9485000C9485000C9485004C
:100020000C9485000C9485000C9485000C9485003C
:100030000C9485000C9485000C9485000C9485002C
:100040000C9471080C9485000C943F080C941908CA
:100050000C9485000C9485000C9485000C9485000C
:100060000C94BB080C9485000000000800020100FD
:100070000003040700000000000000000000000072
:10008000250028002B0000000000240027002A0083
:10009000040404040404040402020202020203032E
:1000A0000303030301020408102040800102040836
:1000B0001020010204081020DA0911241FBECFEF1E
:1000C000D8E0DEBFCDBF11E0A0E0B1E0E4E7F9E1A8
:1000D00002C005900D92A43CB107D9F723E0A4EC2F
:1000E000B1E001C01D92AE35B207E1F710E0CDE5F9
:1000F000D0E004C02197FE010E94B20CCC35D1079C
:10010000C9F70E94210A0C94B80C0C9400000895C1
:100110000895AF92BF92CF92DF92EF92FF920F932A
:100120001F93CF93DF936C017B018B01040F151F8D
:10013000EB015E01AE18BF08C017D10759F06991F5
:10014000D601ED91FC910190F081E02DC601099559
:10015000892B79F7C501DF91CF911F910F91FF9006
:10016000EF90DF90CF90BF90AF900895FC01538D3A
:10017000448D252F30E0842F90E0821B930B541781
:1001800010F0CF96089501970895FC01918D828D0E
:10019000981761F0A28DAE0FBF2FB11D5D968C91A7
:1001A000928D9F5F9F73928F90E008958FEF9FEFE6
:1001B0000895FC01918D828D981731F0828DE80FA2
:1001C000F11D858D90E008958FEF9FEF0895FC015C
:1001D000918D228D892F90E0805C9F4F821B910929
:1001E0008F739927089584E992E00E94E70021E047
:1001F000892B09F420E0822F089580E090E0892B7C
:1002000029F00E94F30081110C9400000895FC0174
:10021000A48DA80FB92FB11DA35ABF4F2C91848D67
:1002200090E001968F739927848FA689B7892C93C4
:10023000A089B1898C91837080648C93938D848D17
:10024000981306C00288F389E02D80818F7D80831A
:100250000895EF92FF920F931F93CF93DF93EC01DA
:1002600081E0888F9B8D8C8D98131AC0E889F9895D
:10027000808185FF15C09FB7F894EE89FF89608360
:10028000E889F98980818370806480839FBF81E0E1
:1002900090E0DF91CF911F910F91FF90EF90089523
:1002A000F62E0B8D10E00F5F1F4F0F731127E02EFE
:1002B0008C8D8E110CC00FB607FCFACFE889F98936
:1002C000808185FFF5CFCE010E940701F1CFEB8D34
:1002D000EC0FFD2FF11DE35AFF4FF0829FB7F8940A
:1002E0000B8FEA89FB8980818062CFCFCF93DF9328
:1002F000EC01888D8823B9F0AA89BB89E889F9893E
:100300008C9185FD03C0808186FD0DC00FB607FC72
:10031000F7CF8C9185FFF2CF808185FFEDCFCE01A5
:100320000E940701E9CFDF91CF91089590E0FC0191
:10033000E859FF4F2491FC01EC55FF4F3491FC012B
:10034000E057FF4FE491EE23C9F0222339F0233028
:1003500001F1A8F4213019F1223029F1F0E0EE0F7B
:10036000FF1FE458FF4FA591B4918FB7F894EC911B
:10037000611126C030953E233C938FBF08952730EE
:10038000A9F02830C9F0243049F7809180008F7D92
:1003900003C0809180008F7780938000DFCF84B589
:1003A0008F7784BDDBCF84B58F7DFBCF8091B0008C
:1003B0008F778093B000D2CF8091B0008F7DF9CF3E
:1003C0003E2BDACF3FB7F89480912D0290912E0208
:1003D000A0912F02B091300226B5A89B05C02F3FF7
:1003E00019F00196A11DB11D3FBFBA2FA92F982F5B
:1003F0008827BC01CD01620F711D811D911D42E056
:10040000660F771F881F991F4A95D1F7089520918D
:100410000502260F3327331F21323105ECF42091DA
:100420006A02FC0190E080E0243069F082E00895E7
:10043000A09105022191AC014B515E4FA40FB52F45
:10044000B11D2C930196861798F380910502680FD1
:100450006093050280E0089581E0089510926A0299
:1004600081E0809369021092440261E082E10E947F
:10047000960161E083E10E949601E9EBF0E0808162
:100480008E7F808380818D7F808388E48093B80015
:1004900085E48093BC000895CF93DF9391E090931F
:1004A000E4018823B9F0C091B800D091BA008091DE
:1004B000BC008A7B8093BC0060E082E10E949601D0
:1004C00060E083E10E9496010E942E02D093BA0060
:1004D000C093B800DF91CF9108958F929F92AF9211
:1004E000BF92CF92DF92EF92FF920F931F93CF9321
:1004F000DF93D0919302D13208F0D7C0182FC0916A
:1005000092020E94E2016B017C0180916A028111DA
:100510006BC082E080936A02109369028FEF809330
:10052000680210926702D0936602A2E7B2E0E6E4A6
:10053000F2E080E0D81391C010924502809145020C
:10054000CC0FC82BC093450280914402813009F042
:1005500088C0109244020E94E2016B017C018091EC
:1005600045028093BB0080916C0290916D02A09136
:100570006E02B0916F02892B8A2B8B2BA1F00E9407
:10058000E20100916C0210916D0220916E02309197
:100590006F026C197D098E099F0906171707280736
:1005A000390708F442C08091BC0083FDD8CF85ECA8
:1005B0008093BC000E94E2016B017C0180916A0281
:1005C000823009F450C0809168028F3F09F46FC0F7
:1005D00080916802803209F46CC080916802803397
:1005E00009F469C084E026C080916C0290916D028C
:1005F000A0916E02B0916F02892B8A2B8B2B09F48C
:1006000084CF0E94E20180906C0290906D02A090D5
:100610006E02B0906F026C197D098E099F098616D3
:100620009706A806B90608F070CF80916B020E9469
:100630004C0285E0109271021092930210927002A7
:10064000DF91CF911F910F91FF90EF90DF90CF90AE
:10065000BF90AF909F908F9008959D9191938F5FE1
:1006600069CF85EEA5CF80916C0290916D02A0912B
:100670006E02B0916F02892B8A2B8B2B09F49ECFCF
:100680000E94E20100916C0210916D0220916E02B5
:1006900030916F026C197D098E099F0906171707A3
:1006A0002807390708F08ACFC0CF81E0C3CF80E0A8
:1006B000C1CF82E0BFCF83E0BDCF0F931F93CF9315
:1006C000DF938A01E901209711F4C1E3D3E091E0BF
:1006D0009093700280939202109271021092930292
:1006E000E881F9810190F081E02DCE010995D801D2
:1006F00011966C91E881F9810190F081E02DCE0195
:100700000995E881F9810190F081E02DD8016C9183
:10071000CE01099581E00E946D0291E0811190E087
:10072000892FDF91CF911F910F9108950F931F9300
:10073000CF93DF938A01E901209711F4C1E3D3E05D
:1007400091E0909370028093920210927102109245
:100750009302E881F9810190F081E02DCE010995A5
:10076000E881F9810190F081E02DD8016C91CE01F2
:10077000099581E00E946D0291E0811190E0892F3E
:10078000DF91CF911F910F9108950895E091360266
:1007900080913502E81730F4F0E0EC53FE4F808191
:1007A00090E008958FEF9FEF089590913602809129
:1007B00035022FEF3FEF981748F4E92FF0E0EC53A4
:1007C000FE4F208130E09F5F90933602C90108956B
:1007D0008091350290913602891B990B0895CF9232
:1007E000DF92EF92FF920F931F93CF93DF937C01E1
:1007F000CB018A0120917002222389F0EB016B0169
:10080000C40ED51ECC15DD0569F06991D701ED91B7
:10081000FC910190F081E02DC7010995F3CF642F81
:100820000E940702C801DF91CF911F910F91FF90A5
:10083000EF90DF90CF900895CF93DF931F92CDB7C5
:10084000DEB76983209170022223F9F02091930290
:10085000203258F021E030E0FC013383228390E025
:1008600080E00F90DF91CF91089580917102E82F81
:10087000F0E0EE58FD4F998190838F5F8093710275
:100880008093930281E090E0ECCF61E0CE0101968D
:100890000E940702F7CF90E080E00895FC010190EC
:1008A0000020E9F73197AF01481B590BBC0184E9DF
:1008B00092E00C9489000C944E04CF93DF930E9435
:1008C0004E04EC0184E291E00E944E048C0F9D1FC7
:1008D000DF91CF9108958F929F92AF92BF92CF9266
:1008E000DF92EF92FF920F931F93CF93DF93CDB7D9
:1008F000DEB7A1970FB6F894DEBF0FBECDBF6C0177
:10090000990FEE08FF08F7FE41C06DE284E992E01E
:100910000E9429018C0122273327A9012C193D09A6
:100920004E095F0919A2CE0181967C019AE0892EB9
:10093000912CA12CB12CCA01B901A50194010E94EE
:10094000900C605DF70162937F012115310541052F
:10095000510589F790E080E0309719F0CF010E94AF
:100960004E04800F911FA1960FB6F894DEBF0FBE04
:10097000CDBFDF91CF911F910F91FF90EF90DF904E
:10098000CF90BF90AF909F908F900895A701960150
:1009900019A28E010F5D1F4F8AE0C82ED12CE12CC9
:1009A000F12CCA01B901A70196010E94900C605D6B
:1009B000F80162938F01211531054105510589F731
:1009C00090E080E0309779F2CF010E944E04CBCFC7
:1009D0002F923F924F925F926F927F928F929F924F
:1009E000AF92BF92CF92DF92EF92FF920F931F933D
:1009F000CF93DF93CDB7DEB72E970FB6F894DEBF57
:100A00000FBECDBF8B836E8338872F8318018FB7BE
:100A1000F8944090290250902A0260902B02709026
:100A20002C028FBFE114F10421F481E3E82E83E06E
:100A3000F82E2B81220F2C83C42ED12C342F3195EC
:100A40003D834E871A82198210E001E0C101B0E0B7
:100A5000A0E089879A87AB87BC87A981BA81AC154A
:100A6000BD050CF028C100937002BB81B0939202C7
:100A70001092710210929302D701ED91FC910190B6
:100A8000F081E02D6E81C701099581E00E946D0221
:100A900000937002BB81B093920210927102109287
:100AA00093020E94E2014B015C0180916A02811174
:100AB0006EC02E852D87213210F030E23D870093E5
:100AC0006A02009369024FEF409368021092670236
:100AD0008D85815080936602009345028091450286
:100AE0005C81852B8093450280914402813009F01E
:100AF00098C0109244020E94E2014B015C01809177
:100B000045028093BB0080916C0290916D02A09190
:100B10006E02B0916F02892B8A2B8B2BA1F00E9461
:100B2000E20120916C0230916D0240916E02509171
:100B30006F02681979098A099B0926173707480740
:100B4000590708F445C08091BC0083FDD8CF85ECDF
:100B50008093BC000E94E2014B015C0180916A021B
:100B6000813009F462C080916702AD858A1718F45C
:100B7000B0916702BD87A6E4B2E0E4ECF1E080E06A
:100B80002D85821751F19D9191938F5FF9CF8091BF
:100B90006C0290916D02A0916E02B0916F02892B50
:100BA0008A2B8B2B09F481CF0E94E20120916C02E9
:100BB00030916D0240916E0250916F02681979096F
:100BC0008A099B09261737074807590708F06DCF90
:100BD00080916B020E944C021D86109236023D8568
:100BE00030933502D701ED91FC910084F185E02D21
:100BF000C7010995892B09F453C021143104B9F5B3
:100C0000D701ED91FC910284F385E02DC701099590
:100C1000EF81F885E10FF11D17FDFA9580831F5FC5
:100C2000E1CF95EE9093BC0095CF80916C029091AE
:100C30006D02A0916E02B0916F02892B8A2B8B2BD3
:100C400009F48CCF0E94E20120916C0230916D0278
:100C500040916E0250916F02681979098A099B09C7
:100C6000261737074807590708F078CFB1CF2FB7B5
:100C7000F8948091290290912A02A0912B02B091C0
:100C80002C022FBF84199509A609B70929853A8531
:100C90004B855C8582179307A407B50708F4B0CF8E
:100CA00049815A814C0D5D1D5A8349835E858D8132
:100CB000580F5E87D2CE21143104F9F08FB7F89423
:100CC0004091290250912A0260912B0270912C02CE
:100CD0008FBF4419550966097709C101B0E0A0E04A
:100CE000481759076A077B0740F0812F012E000C37
:100CF000990B8C159D050CF41FEF812F2E960FB6C6
:100D0000F894DEBF0FBECDBFDF91CF911F910F9141
:100D1000FF90EF90DF90CF90BF90AF909F908F901B
:100D20007F906F905F904F903F902F900895EF923B
:100D3000FF920F931F93CF93DF93CDE3D3E0E9802E
:100D4000FA8008EE13E020E433E042E067E18881B6
:100D50000E94E8048B819C81982789279827DF913E
:100D6000CF911F910F91FF90EF900895EF92FF9216
:100D70000F931F93CF93DF93CDE3D3E0E980FA8005
:100D800008EE13E020E433E042E065E188810E9450
:100D9000E8048B819C81982789279827DF91CF9140
:100DA0001F910F91FF90EF900895EF92FF920F9394
:100DB0001F93CF93DF93CDE3D3E0E980FA8008EE71
:100DC00013E020E433E042E063E188810E94E8041C
:100DD0008B819C81982789279827DF91CF911F913C
:100DE0000F91FF90EF900895EF92FF920F931F9352
:100DF000CF93DF931F92CDB7DEB7E0903E03F09024
:100E00003F0308EE13E09E012F5F3F4F41E065E78F
:100E100080913D030E94E804882339F089818E7710
:100E200090E09595879580934003809140030F90C3
:100E3000DF91CF911F910F91FF90EF900895EF9266
:100E4000FF920F931F930E94F4066AE0883308F024
:100E50006DE7E0903E03F0903F0308EE13E020E4DE
:100E600033E042E080913D030E94E804809140031A
:100E7000909141039827892798271F910F91FF9000
:100E8000EF900895EF92FF920F931F930E94F40644
:100E900068E0883308F06AE7E0903E03F0903F0393
:100EA00008EE13E020E433E042E080913D030E942D
:100EB000E80480914003909141039827892798275F
:100EC0001F910F91FF90EF900895EF92FF920F9373
:100ED0001F930E94F40666E0883308F067E7E0900D
:100EE0003E03F0903F0308EE13E020E433E042E0DD
:100EF00080913D030E94E80480914003909141035A
:100F00009827892798271F910F91FF90EF900895B8
:100F10007F928F929F92AF92BF92CF92DF92EF9289
:100F2000FF920F931F93CF93DF9300D0CDB7DEB71F
:100F3000A82E962E742E822EB02E08EE13E09E015F
:100F40002E5F3F4F41E00E94E8048823C1F1872DC6
:100F50008819990BAC014F5F5F4F81E090E002C0B0
:100F6000880F991F8A94E2F70197042E01C0880F19
:100F70000A94EAF72B2D01C0220F4A95EAF7B82E02
:100F8000B0949A81B92282238B298A83898397011D
:100F9000AE014F5F5F4F692D8A2D0E9496030F901F
:100FA0000F90DF91CF911F910F91FF90EF90DF9005
:100FB000CF90BF90AF909F908F907F90089580E0EA
:100FC000EECF85ED8093BC0080916C0290916D0214
:100FD000A0916E02B0916F020796A11DB11D23E092
:100FE000B695A795979587952A95D1F72091BC003E
:100FF00024FD03C010926A02089540916C02509142
:101000006D0260916E0270916F02452B462B472B4B
:1010100069F30097A105B10541F025E32A95F1F7A1
:1010200000000197A109B109E1CF80916B020C94F6
:101030004C021F920F920FB60F9211242F933F93E1
:101040004F935F936F937F938F939F93AF93BF93D0
:10105000EF93FF9384E992E00E940701FF91EF91E3
:10106000BF91AF919F918F917F916F915F914F91C0
:101070003F912F910F900FBE0F901F9018951F92C8
:101080000F920FB60F9211242F938F939F93EF938C
:10109000FF93E091A402F091A5028081E091AA0261
:1010A000F091AB0282FD1BC090818091AD028F5FF9
:1010B0008F732091AE02821741F0E091AD02F0E013
:1010C000EC56FD4F958F8093AD02FF91EF919F916C
:1010D0008F912F910F900FBE0F901F9018958081C8
:1010E000F4CF1F920F920FB60F9211242F933F93BC
:1010F0008F939F93AF93BF938091290290912A027F
:10110000A0912B02B0912C023091280223E0230FF2
:101110002D3758F50196A11DB11D2093280280930B
:10112000290290932A02A0932B02B0932C02809163
:101130002D0290912E02A0912F02B09130020196C3
:10114000A11DB11D80932D0290932E02A0932F021A
:10115000B0933002BF91AF919F918F913F912F91AA
:101160000F900FBE0F901F90189526E8230F029640
:10117000A11DB11DD2CF1F920F920FB60F92112455
:101180002F933F934F935F936F937F938F939F938F
:10119000AF93BF93EF93FF938091B900887F803620
:1011A00009F44AC0F0F5883209F4A7C018F5803177
:1011B00009F49BC0B8F4882309F4F9C0883009F415
:1011C00094C0FF91EF91BF91AF919F918F917F91CB
:1011D0006F915F914F913F912F910F900FBE0F90A4
:1011E0001F901895883109F488C0803251F7809398
:1011F000680214C0803409F49DC040F48033B9F310
:101200008833F9F68093680285ECB0C0803509F424
:1012100085C0883509F496C0883499F60E94E107A4
:10122000D0CF883909F48CC038F5883729F050F4CC
:10123000883611F0803729F683E080936A02109295
:10124000270257C0883809F47BC0803919F08038EC
:1012500009F0B7CF80912702803208F071C0E09189
:10126000270281E08E0F809327028091BB00F0E07F
:10127000E95FFD4F80833DC0803B39F0E0F4803A68
:1012800009F479C0883A09F09CCF84E080936A021F
:101290001092060210920502E0913302F09134029E
:1012A00009958091050281110FC081E080930502AC
:1012B0001092E50109C0803C09F4A6CF883C09F4EE
:1012C000A3CF883B09F07DCFE091060281E08E0F2D
:1012D00080930602F0E0EB51FE4F80818093BB00CB
:1012E000909106028091050229C080914502809369
:1012F000BB0085EC8093BC0064CF90916702809125
:101300006602981758F5E091670281E08E0F80938E
:101310006702F0E0EA5BFD4F8081E9CFE091670270
:1013200081E08E0F809367028091BB00F0E0EA5B62
:10133000FD4F808390916702809166029817C8F2F2
:1013400085E8D8CFE091670281E08E0F8093670235
:101350008091BB00F0E0EA5BFD4F808380916902E1
:1013600081115CCF81E08093440284EA8093BC00C9
:1013700010926A0226CF85EC8093BC0010926A021C
:1013800080912702803230F4E0912702F0E0E95F9B
:10139000FD4F10826091270270E0E0913102F091E0
:1013A000320287E092E00995109227020ACF10924C
:1013B000680234CFE4E9F2E01382128288EE93E00F
:1013C000A0E0B0E084839583A683B78324E031E076
:1013D0003183208325EC30E03587248724EC30E00E
:1013E0003787268720EC30E0318B208B21EC30E0F2
:1013F000338B228B22EC30E0358B248B26EC30E0D3
:10140000378B268B118E128E138E148EE1E3F3E050
:101410001382128284839583A683B78386E191E049
:1014200091838083EDE3F3E088E68083128211826A
:1014300088EF9AE2A0E0B0E0818B928BA38BB48B13
:101440000895CF93DF9300D000D000D01F92CDB786
:10145000DEB7789484B5826084BD84B5816084BD34
:1014600085B5826085BD85B5816085BD80916E0042
:10147000816080936E001092810080918100826073
:1014800080938100809181008160809381008091B0
:1014900080008160809380008091B100846080939F
:1014A000B1008091B00081608093B00080917A009B
:1014B000846080937A0080917A00826080937A00C1
:1014C00080917A00816080937A0080917A008068B0
:1014D00080937A001092C100109236021092350269
:1014E00010927102109293020E942E0287E890E0FF
:1014F000909334028093330288E890E09093320214
:1015000080933102E091A402F091A50282E08083F1
:10151000E091A002F091A1021082E091A202F0916C
:10152000A30283E380831092AC02E091A802F091C1
:10153000A90286E08083E091A602F091A702808153
:1015400080618083E091A602F091A702808188608B
:101550008083E091A602F091A70280818068808359
:10156000E091A602F091A70280818F7D80838FE5B4
:1015700091E00E945D04E0903E03F0903F0301E0A3
:1015800023E042E06BE680913D030E948807E090F3
:101590003E03F0903F0300E022E044E06BE18091E5
:1015A0003D030E948807E0903E03F0903F0322E055
:1015B00044E06CE180913D030E948807A0903E03C7
:1015C000B0903F03D0903D03750108EE13E09E01FB
:1015D0002F5F3F4F41E06BE68D2D0E94E80489812B
:1015E0008F7B89838F839501AE01495F5F4F6BE6E7
:1015F0008D2D0E9496038BE791E00E945D040E946E
:10160000F406843309F089C187E291E00E945D0409
:1016100089E991E00E945D040E9465070E946B04C5
:1016200081EC91E00E945B040E9442070E946B04DF
:1016300081EC91E00E945B040E941F070E946B04F2
:1016400081EC91E00E945B040E94D5060E946B042D
:1016500081EC91E00E945B040E94B6060E946B043C
:1016600081EC91E00E945B040E9497060E946B044B
:1016700081EC91E00E945B0485E291E00E945B04B2
:1016800020913E0330913F0380913D034CED50E0AB
:101690005E834D83AE014B5F5F4F63E10E945D034C
:1016A00020913E0330913F0380913D034CE450E094
:1016B0005C834B83AE014D5F5F4F65E10E945D032C
:1016C00020913E0330913F0380913D034BEA5FEF51
:1016D0005A834983AE014F5F5F4F67E10E945D030C
:1016E0000E9465070E946B0481EC91E00E945B04FC
:1016F0000E9442070E946B0481EC91E00E945B040F
:101700000E941F070E946B0481EC91E00E945B0421
:101710000E94D5060E946B0481EC91E00E945B045C
:101720000E94B6060E946B0481EC91E00E945B046B
:101730000E9497060E946B0481EC91E00E945B047A
:1017400085E291E00E945B04E1EBF0E02491EDE999
:10175000F0E08491882399F090E0880F991FFC01B4
:10176000EA57FF4FA591B491FC01E458FF4F8591D2
:1017700094918FB7F894EC91E22BEC938FBF3324C4
:10178000339490E0C92E90E0D92EE0903E03F09083
:101790003F0308EE13E020E433E04EE06BE380917A
:1017A0003D030E94E80480914003909141039827F3
:1017B00089279827909343028093420280914203A5
:1017C000909143039827892798279093410280930B
:1017D00040028091440390914503982789279827D8
:1017E00090933F0280933E02809148039091490379
:1017F00098278927982790933D0280933C028091F7
:101800004A0390914B0398278927982790933B028E
:1018100080933A0280914C0390914D039827892739
:10182000982790933902809338028DEB91E00E94C3
:101830005B0480914202909143020E946B0481EC10
:1018400091E00E945B0480914002909141020E94CD
:101850006B0481EC91E00E945B0480913E029091C8
:101860003F020E946B0481EC91E00E945B04809136
:101870003C0290913D020E946B0481EC91E00E9439
:101880005B0480913A0290913B020E946B0481ECD0
:1018900091E00E945B0480913802909139020E948D
:1018A0006B0484E291E00E944E046091370263254C
:1018B000609337028DE00E9496010E94E2012B01A5
:1018C0003C0184E6882E912CA12CB12C0E94E201CF
:1018D0006419750986099709683E73408105910569
:1018E000A8F321E0821A9108A108B10888EE480EF9
:1018F00083E0581E611C711C81149104A104B10481
:1019000029F7C114D10409F440CF0E94F3008823C1
:1019100009F43BCF0E94000038CF85E491E076CEF9
:10192000A1E21A2EAA1BBB1BFD010DC0AA1FBB1FE3
:10193000EE1FFF1FA217B307E407F50720F0A21B55
:10194000B30BE40BF50B661F771F881F991F1A94C2
:1019500069F760957095809590959B01AC01BD01EC
:10196000CF010895EE0FFF1F0590F491E02D09942B
:04197000F894FFCF19
:101974000000000029018900B6007601E700C500D7
:10198400D900000000001C04EF034B04C503E80366
:10199400D503C6030D0A004D50553630353020634B
:1019A4006F6E6E656374696F6E20737563636573C0
:1019B4007366756C004D50553630353020636F6E4C
:1019C4006E656374696F6E206661696C6564004955
:1019D4006E697469616C697A696E67204932432063
:1019E400646576696365732E2E2E0054657374697D
:1019F4006E672064657669636520636F6E6E6563E8
:101A040074696F6E732E2E2E005570646174696E46
:101A14006720696E7465726E616C2073656E736F96
:101A240072206F6666736574732E2E2E00612F67A5
:041A34003A0900006B
:00000001FF
